{
  "contractName": "BeastQuest",
  "abi": [
    {
      "inputs": [],
      "stateMutability": "nonpayable",
      "type": "constructor"
    },
    {
      "anonymous": false,
      "inputs": [
        {
          "indexed": true,
          "internalType": "address",
          "name": "owner",
          "type": "address"
        },
        {
          "indexed": true,
          "internalType": "address",
          "name": "approved",
          "type": "address"
        },
        {
          "indexed": true,
          "internalType": "uint256",
          "name": "tokenId",
          "type": "uint256"
        }
      ],
      "name": "Approval",
      "type": "event"
    },
    {
      "anonymous": false,
      "inputs": [
        {
          "indexed": true,
          "internalType": "address",
          "name": "owner",
          "type": "address"
        },
        {
          "indexed": true,
          "internalType": "address",
          "name": "operator",
          "type": "address"
        },
        {
          "indexed": false,
          "internalType": "bool",
          "name": "approved",
          "type": "bool"
        }
      ],
      "name": "ApprovalForAll",
      "type": "event"
    },
    {
      "anonymous": false,
      "inputs": [
        {
          "indexed": true,
          "internalType": "address",
          "name": "account",
          "type": "address"
        }
      ],
      "name": "MinterAdded",
      "type": "event"
    },
    {
      "anonymous": false,
      "inputs": [
        {
          "indexed": true,
          "internalType": "address",
          "name": "account",
          "type": "address"
        }
      ],
      "name": "MinterRemoved",
      "type": "event"
    },
    {
      "anonymous": false,
      "inputs": [
        {
          "indexed": true,
          "internalType": "address",
          "name": "previousOwner",
          "type": "address"
        },
        {
          "indexed": true,
          "internalType": "address",
          "name": "newOwner",
          "type": "address"
        }
      ],
      "name": "OwnershipTransferred",
      "type": "event"
    },
    {
      "anonymous": false,
      "inputs": [
        {
          "indexed": true,
          "internalType": "bytes32",
          "name": "role",
          "type": "bytes32"
        },
        {
          "indexed": true,
          "internalType": "bytes32",
          "name": "previousAdminRole",
          "type": "bytes32"
        },
        {
          "indexed": true,
          "internalType": "bytes32",
          "name": "newAdminRole",
          "type": "bytes32"
        }
      ],
      "name": "RoleAdminChanged",
      "type": "event"
    },
    {
      "anonymous": false,
      "inputs": [
        {
          "indexed": true,
          "internalType": "bytes32",
          "name": "role",
          "type": "bytes32"
        },
        {
          "indexed": true,
          "internalType": "address",
          "name": "account",
          "type": "address"
        },
        {
          "indexed": true,
          "internalType": "address",
          "name": "sender",
          "type": "address"
        }
      ],
      "name": "RoleGranted",
      "type": "event"
    },
    {
      "anonymous": false,
      "inputs": [
        {
          "indexed": true,
          "internalType": "bytes32",
          "name": "role",
          "type": "bytes32"
        },
        {
          "indexed": true,
          "internalType": "address",
          "name": "account",
          "type": "address"
        },
        {
          "indexed": true,
          "internalType": "address",
          "name": "sender",
          "type": "address"
        }
      ],
      "name": "RoleRevoked",
      "type": "event"
    },
    {
      "anonymous": false,
      "inputs": [
        {
          "indexed": true,
          "internalType": "address",
          "name": "from",
          "type": "address"
        },
        {
          "indexed": true,
          "internalType": "address",
          "name": "to",
          "type": "address"
        },
        {
          "indexed": true,
          "internalType": "uint256",
          "name": "tokenId",
          "type": "uint256"
        }
      ],
      "name": "Transfer",
      "type": "event"
    },
    {
      "inputs": [],
      "name": "DEFAULT_ADMIN_ROLE",
      "outputs": [
        {
          "internalType": "bytes32",
          "name": "",
          "type": "bytes32"
        }
      ],
      "stateMutability": "view",
      "type": "function"
    },
    {
      "inputs": [
        {
          "internalType": "address",
          "name": "account",
          "type": "address"
        }
      ],
      "name": "addMinter",
      "outputs": [],
      "stateMutability": "nonpayable",
      "type": "function"
    },
    {
      "inputs": [
        {
          "internalType": "address",
          "name": "to",
          "type": "address"
        },
        {
          "internalType": "uint256",
          "name": "tokenId",
          "type": "uint256"
        }
      ],
      "name": "approve",
      "outputs": [],
      "stateMutability": "nonpayable",
      "type": "function"
    },
    {
      "inputs": [
        {
          "internalType": "address",
          "name": "owner",
          "type": "address"
        }
      ],
      "name": "balanceOf",
      "outputs": [
        {
          "internalType": "uint256",
          "name": "",
          "type": "uint256"
        }
      ],
      "stateMutability": "view",
      "type": "function"
    },
    {
      "inputs": [],
      "name": "baseURI",
      "outputs": [
        {
          "internalType": "string",
          "name": "",
          "type": "string"
        }
      ],
      "stateMutability": "view",
      "type": "function"
    },
    {
      "inputs": [
        {
          "internalType": "uint256",
          "name": "tokenId",
          "type": "uint256"
        }
      ],
      "name": "getApproved",
      "outputs": [
        {
          "internalType": "address",
          "name": "",
          "type": "address"
        }
      ],
      "stateMutability": "view",
      "type": "function"
    },
    {
      "inputs": [
        {
          "internalType": "bytes32",
          "name": "role",
          "type": "bytes32"
        }
      ],
      "name": "getRoleAdmin",
      "outputs": [
        {
          "internalType": "bytes32",
          "name": "",
          "type": "bytes32"
        }
      ],
      "stateMutability": "view",
      "type": "function"
    },
    {
      "inputs": [
        {
          "internalType": "bytes32",
          "name": "role",
          "type": "bytes32"
        },
        {
          "internalType": "uint256",
          "name": "index",
          "type": "uint256"
        }
      ],
      "name": "getRoleMember",
      "outputs": [
        {
          "internalType": "address",
          "name": "",
          "type": "address"
        }
      ],
      "stateMutability": "view",
      "type": "function"
    },
    {
      "inputs": [
        {
          "internalType": "bytes32",
          "name": "role",
          "type": "bytes32"
        }
      ],
      "name": "getRoleMemberCount",
      "outputs": [
        {
          "internalType": "uint256",
          "name": "",
          "type": "uint256"
        }
      ],
      "stateMutability": "view",
      "type": "function"
    },
    {
      "inputs": [
        {
          "internalType": "bytes32",
          "name": "role",
          "type": "bytes32"
        },
        {
          "internalType": "address",
          "name": "account",
          "type": "address"
        }
      ],
      "name": "grantRole",
      "outputs": [],
      "stateMutability": "nonpayable",
      "type": "function"
    },
    {
      "inputs": [
        {
          "internalType": "bytes32",
          "name": "role",
          "type": "bytes32"
        },
        {
          "internalType": "address",
          "name": "account",
          "type": "address"
        }
      ],
      "name": "hasRole",
      "outputs": [
        {
          "internalType": "bool",
          "name": "",
          "type": "bool"
        }
      ],
      "stateMutability": "view",
      "type": "function"
    },
    {
      "inputs": [
        {
          "internalType": "address",
          "name": "owner",
          "type": "address"
        },
        {
          "internalType": "address",
          "name": "operator",
          "type": "address"
        }
      ],
      "name": "isApprovedForAll",
      "outputs": [
        {
          "internalType": "bool",
          "name": "",
          "type": "bool"
        }
      ],
      "stateMutability": "view",
      "type": "function"
    },
    {
      "inputs": [
        {
          "internalType": "address",
          "name": "account",
          "type": "address"
        }
      ],
      "name": "isMinter",
      "outputs": [
        {
          "internalType": "bool",
          "name": "",
          "type": "bool"
        }
      ],
      "stateMutability": "view",
      "type": "function"
    },
    {
      "inputs": [],
      "name": "name",
      "outputs": [
        {
          "internalType": "string",
          "name": "",
          "type": "string"
        }
      ],
      "stateMutability": "view",
      "type": "function"
    },
    {
      "inputs": [],
      "name": "owner",
      "outputs": [
        {
          "internalType": "address",
          "name": "",
          "type": "address"
        }
      ],
      "stateMutability": "view",
      "type": "function"
    },
    {
      "inputs": [
        {
          "internalType": "uint256",
          "name": "tokenId",
          "type": "uint256"
        }
      ],
      "name": "ownerOf",
      "outputs": [
        {
          "internalType": "address",
          "name": "",
          "type": "address"
        }
      ],
      "stateMutability": "view",
      "type": "function"
    },
    {
      "inputs": [],
      "name": "renounceMinter",
      "outputs": [],
      "stateMutability": "nonpayable",
      "type": "function"
    },
    {
      "inputs": [],
      "name": "renounceOwnership",
      "outputs": [],
      "stateMutability": "nonpayable",
      "type": "function"
    },
    {
      "inputs": [
        {
          "internalType": "bytes32",
          "name": "role",
          "type": "bytes32"
        },
        {
          "internalType": "address",
          "name": "account",
          "type": "address"
        }
      ],
      "name": "renounceRole",
      "outputs": [],
      "stateMutability": "nonpayable",
      "type": "function"
    },
    {
      "inputs": [
        {
          "internalType": "bytes32",
          "name": "role",
          "type": "bytes32"
        },
        {
          "internalType": "address",
          "name": "account",
          "type": "address"
        }
      ],
      "name": "revokeRole",
      "outputs": [],
      "stateMutability": "nonpayable",
      "type": "function"
    },
    {
      "inputs": [
        {
          "internalType": "address",
          "name": "from",
          "type": "address"
        },
        {
          "internalType": "address",
          "name": "to",
          "type": "address"
        },
        {
          "internalType": "uint256",
          "name": "tokenId",
          "type": "uint256"
        }
      ],
      "name": "safeTransferFrom",
      "outputs": [],
      "stateMutability": "nonpayable",
      "type": "function"
    },
    {
      "inputs": [
        {
          "internalType": "address",
          "name": "from",
          "type": "address"
        },
        {
          "internalType": "address",
          "name": "to",
          "type": "address"
        },
        {
          "internalType": "uint256",
          "name": "tokenId",
          "type": "uint256"
        },
        {
          "internalType": "bytes",
          "name": "_data",
          "type": "bytes"
        }
      ],
      "name": "safeTransferFrom",
      "outputs": [],
      "stateMutability": "nonpayable",
      "type": "function"
    },
    {
      "inputs": [
        {
          "internalType": "address",
          "name": "operator",
          "type": "address"
        },
        {
          "internalType": "bool",
          "name": "approved",
          "type": "bool"
        }
      ],
      "name": "setApprovalForAll",
      "outputs": [],
      "stateMutability": "nonpayable",
      "type": "function"
    },
    {
      "inputs": [
        {
          "internalType": "bytes4",
          "name": "interfaceId",
          "type": "bytes4"
        }
      ],
      "name": "supportsInterface",
      "outputs": [
        {
          "internalType": "bool",
          "name": "",
          "type": "bool"
        }
      ],
      "stateMutability": "view",
      "type": "function"
    },
    {
      "inputs": [],
      "name": "symbol",
      "outputs": [
        {
          "internalType": "string",
          "name": "",
          "type": "string"
        }
      ],
      "stateMutability": "view",
      "type": "function"
    },
    {
      "inputs": [
        {
          "internalType": "uint256",
          "name": "index",
          "type": "uint256"
        }
      ],
      "name": "tokenByIndex",
      "outputs": [
        {
          "internalType": "uint256",
          "name": "",
          "type": "uint256"
        }
      ],
      "stateMutability": "view",
      "type": "function"
    },
    {
      "inputs": [
        {
          "internalType": "address",
          "name": "owner",
          "type": "address"
        },
        {
          "internalType": "uint256",
          "name": "index",
          "type": "uint256"
        }
      ],
      "name": "tokenOfOwnerByIndex",
      "outputs": [
        {
          "internalType": "uint256",
          "name": "",
          "type": "uint256"
        }
      ],
      "stateMutability": "view",
      "type": "function"
    },
    {
      "inputs": [
        {
          "internalType": "uint256",
          "name": "tokenId",
          "type": "uint256"
        }
      ],
      "name": "tokenURI",
      "outputs": [
        {
          "internalType": "string",
          "name": "",
          "type": "string"
        }
      ],
      "stateMutability": "view",
      "type": "function"
    },
    {
      "inputs": [],
      "name": "totalSupply",
      "outputs": [
        {
          "internalType": "uint256",
          "name": "",
          "type": "uint256"
        }
      ],
      "stateMutability": "view",
      "type": "function"
    },
    {
      "inputs": [
        {
          "internalType": "address",
          "name": "from",
          "type": "address"
        },
        {
          "internalType": "address",
          "name": "to",
          "type": "address"
        },
        {
          "internalType": "uint256",
          "name": "tokenId",
          "type": "uint256"
        }
      ],
      "name": "transferFrom",
      "outputs": [],
      "stateMutability": "nonpayable",
      "type": "function"
    },
    {
      "inputs": [
        {
          "internalType": "address",
          "name": "newOwner",
          "type": "address"
        }
      ],
      "name": "transferOwnership",
      "outputs": [],
      "stateMutability": "nonpayable",
      "type": "function"
    },
    {
      "inputs": [
        {
          "internalType": "address",
          "name": "to",
          "type": "address"
        },
        {
          "internalType": "uint256",
          "name": "tokenId",
          "type": "uint256"
        }
      ],
      "name": "mint",
      "outputs": [],
      "stateMutability": "nonpayable",
      "type": "function"
    },
    {
      "inputs": [
        {
          "internalType": "string",
          "name": "tokenURI",
          "type": "string"
        }
      ],
      "name": "updateBaseTokenURI",
      "outputs": [],
      "stateMutability": "nonpayable",
      "type": "function"
    }
  ],
  "bytecode": "0x60806040523480156200001157600080fd5b50604080518082018252601a81527f4265617374517565737420556c74696d617465204865726f657300000000000060208083019190915282518084019093526004835263084a2aa960e31b90830152906200007d6301ffc9a760e01b6001600160e01b036200020316565b815162000092906006906020850190620003d8565b508051620000a8906007906020840190620003d8565b50620000c46380ac58cd60e01b6001600160e01b036200020316565b620000df635b5e139f60e01b6001600160e01b036200020316565b620000fa63780e9d6360e01b6001600160e01b036200020316565b5060009050620001126001600160e01b036200028816565b600a80546001600160a01b0319166001600160a01b038316908117909155604051919250906000907f8be0079c531659141344cd1fd0a4f28419497f9722a3daafe3b4186f6b6457e0908290a350620001886000620001796001600160e01b036200028816565b6001600160e01b036200028d16565b6200019b6001600160e01b036200028816565b6001600160a01b03167f6ae172837ea30b801fbfcdd4108aa1d5bf8ff775444fd70256b44e6bf3dfc3f660405160405180910390a2620001fd60405180606001604052806031815260200162002c65603191396001600160e01b03620002a616565b6200047a565b6001600160e01b0319808216141562000263576040805162461bcd60e51b815260206004820152601c60248201527f4552433136353a20696e76616c696420696e7465726661636520696400000000604482015290519081900360640190fd5b6001600160e01b0319166000908152602081905260409020805460ff19166001179055565b335b90565b620002a282826001600160e01b03620002bb16565b5050565b8051620002a2906009906020840190620003d8565b6000828152600b60209081526040909120620002e2918390620016066200033f821b17901c565b15620002a257620002fb6001600160e01b036200028816565b6001600160a01b0316816001600160a01b0316837f2f8788117e7eff1d82e926ec794901d17c78024a50270940304540a733656f0d60405160405180910390a45050565b60006200035f836001600160a01b0384166001600160e01b036200036816565b90505b92915050565b60006200037f83836001600160e01b03620003c016565b620003b75750815460018181018455600084815260208082209093018490558454848252828601909352604090209190915562000362565b50600062000362565b60009081526001919091016020526040902054151590565b828054600181600116156101000203166002900490600052602060002090601f016020900481019282601f106200041b57805160ff19168380011785556200044b565b828001600101855582156200044b579182015b828111156200044b5782518255916020019190600101906200042e565b50620004599291506200045d565b5090565b6200028a91905b8082111562000459576000815560010162000464565b6127db806200048a6000396000f3fe608060405234801561001057600080fd5b50600436106101fb5760003560e01c806370a082311161011a578063a217fddf116100ad578063c87b56dd1161007c578063c87b56dd14610737578063ca15c87314610754578063d547741f14610771578063e985e9c51461079d578063f2fde38b146107cb576101fb565b8063a217fddf14610615578063a22cb4651461061d578063aa271e1a1461064b578063b88d4fde14610671576101fb565b806391d14854116100e957806391d14854146105b357806395d89b41146105df578063983b2d56146105e7578063986502751461060d576101fb565b806370a082311461055a578063715018a6146105805780638da5cb5b146105885780639010d07c14610590576101fb565b80632f745c59116101925780634f6ccce7116101615780634f6ccce7146104725780636352211e1461048f578063655391c9146104ac5780636c0360eb14610552576101fb565b80632f745c59146103b857806336568abe146103e457806340c10f191461041057806342842e0e1461043c576101fb565b806318160ddd116101ce57806318160ddd1461031f57806323b872dd14610339578063248a9ca31461036f5780632f2ff15d1461038c576101fb565b806301ffc9a71461020057806306fdde031461023b578063081812fc146102b8578063095ea7b3146102f1575b600080fd5b6102276004803603602081101561021657600080fd5b50356001600160e01b0319166107f1565b604080519115158252519081900360200190f35b610243610814565b6040805160208082528351818301528351919283929083019185019080838360005b8381101561027d578181015183820152602001610265565b50505050905090810190601f1680156102aa5780820380516001836020036101000a031916815260200191505b509250505060405180910390f35b6102d5600480360360208110156102ce57600080fd5b50356108ab565b604080516001600160a01b039092168252519081900360200190f35b61031d6004803603604081101561030757600080fd5b506001600160a01b03813516906020013561090d565b005b6103276109e8565b60408051918252519081900360200190f35b61031d6004803603606081101561034f57600080fd5b506001600160a01b038135811691602081013590911690604001356109f9565b6103276004803603602081101561038557600080fd5b5035610a50565b61031d600480360360408110156103a257600080fd5b50803590602001356001600160a01b0316610a65565b610327600480360360408110156103ce57600080fd5b506001600160a01b038135169060200135610ad1565b61031d600480360360408110156103fa57600080fd5b50803590602001356001600160a01b0316610b02565b61031d6004803603604081101561042657600080fd5b506001600160a01b038135169060200135610b63565b61031d6004803603606081101561045257600080fd5b506001600160a01b03813581169160208101359091169060400135610bb8565b6103276004803603602081101561048857600080fd5b5035610bd3565b6102d5600480360360208110156104a557600080fd5b5035610bef565b61031d600480360360208110156104c257600080fd5b8101906020810181356401000000008111156104dd57600080fd5b8201836020820111156104ef57600080fd5b8035906020019184600183028401116401000000008311171561051157600080fd5b91908080601f016020809104026020016040519081016040528093929190818152602001838380828437600092019190915250929550610c1d945050505050565b610243610c6f565b6103276004803603602081101561057057600080fd5b50356001600160a01b0316610cd0565b61031d610d38565b6102d5610dec565b6102d5600480360360408110156105a657600080fd5b5080359060200135610dfb565b610227600480360360408110156105c957600080fd5b50803590602001356001600160a01b0316610e19565b610243610e37565b61031d600480360360208110156105fd57600080fd5b50356001600160a01b0316610e98565b61031d610f65565b610327610ffc565b61031d6004803603604081101561063357600080fd5b506001600160a01b0381351690602001351515611001565b6102276004803603602081101561066157600080fd5b50356001600160a01b0316611106565b61031d6004803603608081101561068757600080fd5b6001600160a01b038235811692602081013590911691604082013591908101906080810160608201356401000000008111156106c257600080fd5b8201836020820111156106d457600080fd5b803590602001918460018302840111640100000000831117156106f657600080fd5b91908080601f016020809104026020016040519081016040528093929190818152602001838380828437600092019190915250929550611158945050505050565b6102436004803603602081101561074d57600080fd5b50356111b6565b6103276004803603602081101561076a57600080fd5b503561145d565b61031d6004803603604081101561078757600080fd5b50803590602001356001600160a01b0316611474565b610227600480360360408110156107b357600080fd5b506001600160a01b03813581169160200135166114cd565b61031d600480360360208110156107e157600080fd5b50356001600160a01b03166114fb565b6001600160e01b0319811660009081526020819052604090205460ff165b919050565b60068054604080516020601f60026000196101006001881615020190951694909404938401819004810282018101909252828152606093909290918301828280156108a05780601f10610875576101008083540402835291602001916108a0565b820191906000526020600020905b81548152906001019060200180831161088357829003601f168201915b505050505090505b90565b60006108b68261161b565b6108f15760405162461bcd60e51b815260040180806020018281038252602c815260200180612678602c913960400191505060405180910390fd5b506000908152600460205260409020546001600160a01b031690565b600061091882610bef565b9050806001600160a01b0316836001600160a01b0316141561096b5760405162461bcd60e51b81526004018080602001828103825260218152602001806127256021913960400191505060405180910390fd5b806001600160a01b031661097d61162e565b6001600160a01b0316148061099e575061099e8161099961162e565b6114cd565b6109d95760405162461bcd60e51b815260040180806020018281038252603881526020018061259b6038913960400191505060405180910390fd5b6109e38383611632565b505050565b60006109f460026116a0565b905090565b610a0a610a0461162e565b826116ab565b610a455760405162461bcd60e51b81526004018080602001828103825260318152602001806127466031913960400191505060405180910390fd5b6109e383838361174f565b6000908152600b602052604090206002015490565b6000828152600b6020526040902060020154610a8890610a8361162e565b610e19565b610ac35760405162461bcd60e51b815260040180806020018281038252602f81526020018061246b602f913960400191505060405180910390fd5b610acd82826118ad565b5050565b6001600160a01b0382166000908152600160205260408120610af9908363ffffffff61191c16565b90505b92915050565b610b0a61162e565b6001600160a01b0316816001600160a01b031614610b595760405162461bcd60e51b815260040180806020018281038252602f815260200180612777602f913960400191505060405180910390fd5b610acd8282611928565b610b73610b6e61162e565b611106565b610bae5760405162461bcd60e51b81526004018080602001828103825260308152602001806126266030913960400191505060405180910390fd5b610acd8282611997565b6109e383838360405180602001604052806000815250611158565b600080610be760028463ffffffff6119b116565b509392505050565b6000610afc826040518060600160405280602981526020016125fd602991396002919063ffffffff6119cd16565b610c28610b6e61162e565b610c635760405162461bcd60e51b81526004018080602001828103825260308152602001806126266030913960400191505060405180910390fd5b610c6c816119e4565b50565b60098054604080516020601f60026000196101006001881615020190951694909404938401819004810282018101909252828152606093909290918301828280156108a05780601f10610875576101008083540402835291602001916108a0565b60006001600160a01b038216610d175760405162461bcd60e51b815260040180806020018281038252602a8152602001806125d3602a913960400191505060405180910390fd5b6001600160a01b0382166000908152600160205260409020610afc906116a0565b610d4061162e565b600a546001600160a01b03908116911614610da2576040805162461bcd60e51b815260206004820181905260248201527f4f776e61626c653a2063616c6c6572206973206e6f7420746865206f776e6572604482015290519081900360640190fd5b600a546040516000916001600160a01b0316907f8be0079c531659141344cd1fd0a4f28419497f9722a3daafe3b4186f6b6457e0908390a3600a80546001600160a01b0319169055565b600a546001600160a01b031690565b6000828152600b60205260408120610af9908363ffffffff61191c16565b6000828152600b60205260408120610af9908363ffffffff6119f716565b60078054604080516020601f60026000196101006001881615020190951694909404938401819004810282018101909252828152606093909290918301828280156108a05780601f10610875576101008083540402835291602001916108a0565b610ea3610b6e61162e565b610ede5760405162461bcd60e51b81526004018080602001828103825260308152602001806126266030913960400191505060405180910390fd5b610ee781611106565b15610f235760405162461bcd60e51b81526004018080602001828103825260298152602001806126fc6029913960400191505060405180910390fd5b610f2e600082610a65565b6040516001600160a01b038216907f6ae172837ea30b801fbfcdd4108aa1d5bf8ff775444fd70256b44e6bf3dfc3f690600090a250565b610f70610b6e61162e565b610fab5760405162461bcd60e51b81526004018080602001828103825260308152602001806126266030913960400191505060405180910390fd5b610fbd6000610fb861162e565b610b02565b610fc561162e565b6001600160a01b03167fe94479a9f7e1952cc78f2d6baab678adc1b772d936c6583def489e524cb6669260405160405180910390a2565b600081565b61100961162e565b6001600160a01b0316826001600160a01b0316141561106f576040805162461bcd60e51b815260206004820152601960248201527f4552433732313a20617070726f766520746f2063616c6c657200000000000000604482015290519081900360640190fd5b806005600061107c61162e565b6001600160a01b03908116825260208083019390935260409182016000908120918716808252919093529120805460ff1916921515929092179091556110c061162e565b60408051841515815290516001600160a01b0392909216917f17307eab39ab6107e8899845ad3d59bd9653f200f220920489ca2b5937696c319181900360200190a35050565b60006001600160a01b03821661114d5760405162461bcd60e51b81526004018080602001828103825260298152602001806125166029913960400191505060405180910390fd5b610afc600083610e19565b61116961116361162e565b836116ab565b6111a45760405162461bcd60e51b81526004018080602001828103825260318152602001806127466031913960400191505060405180910390fd5b6111b084848484611a0c565b50505050565b60606111c18261161b565b6111fc5760405162461bcd60e51b815260040180806020018281038252602f8152602001806126cd602f913960400191505060405180910390fd5b60008281526008602090815260409182902080548351601f60026000196101006001861615020190931692909204918201849004840281018401909452808452606093928301828280156112915780601f1061126657610100808354040283529160200191611291565b820191906000526020600020905b81548152906001019060200180831161127457829003601f168201915b5050600954939450505050600260001961010060018416150201909116046112ba57905061080f565b80511561138b5760098160405160200180838054600181600116156101000203166002900480156113225780601f10611300576101008083540402835291820191611322565b820191906000526020600020905b81548152906001019060200180831161130e575b5050825160208401908083835b6020831061134e5780518252601f19909201916020918201910161132f565b6001836020036101000a0380198251168184511680821785525050505050509050019250505060405160208183030381529060405291505061080f565b600961139684611a5e565b60405160200180838054600181600116156101000203166002900480156113f45780601f106113d25761010080835404028352918201916113f4565b820191906000526020600020905b8154815290600101906020018083116113e0575b5050825160208401908083835b602083106114205780518252601f199092019160209182019101611401565b6001836020036101000a03801982511681845116808217855250505050505090500192505050604051602081830303815290604052915050919050565b6000818152600b60205260408120610afc906116a0565b6000828152600b602052604090206002015461149290610a8361162e565b610b595760405162461bcd60e51b815260040180806020018281038252603081526020018061256b6030913960400191505060405180910390fd5b6001600160a01b03918216600090815260056020908152604080832093909416825291909152205460ff1690565b61150361162e565b600a546001600160a01b03908116911614611565576040805162461bcd60e51b815260206004820181905260248201527f4f776e61626c653a2063616c6c6572206973206e6f7420746865206f776e6572604482015290519081900360640190fd5b6001600160a01b0381166115aa5760405162461bcd60e51b81526004018080602001828103825260268152602001806124cc6026913960400191505060405180910390fd5b600a546040516001600160a01b038084169216907f8be0079c531659141344cd1fd0a4f28419497f9722a3daafe3b4186f6b6457e090600090a3600a80546001600160a01b0319166001600160a01b0392909216919091179055565b6000610af9836001600160a01b038416611b39565b6000610afc60028363ffffffff611b8316565b3390565b600081815260046020526040902080546001600160a01b0319166001600160a01b038416908117909155819061166782610bef565b6001600160a01b03167f8c5be1e5ebec7d5bd14f71427d1e84f3dd0314c0f7b2291e5b200ac8c7c3b92560405160405180910390a45050565b6000610afc82611b8f565b60006116b68261161b565b6116f15760405162461bcd60e51b815260040180806020018281038252602c81526020018061253f602c913960400191505060405180910390fd5b60006116fc83610bef565b9050806001600160a01b0316846001600160a01b031614806117375750836001600160a01b031661172c846108ab565b6001600160a01b0316145b80611747575061174781856114cd565b949350505050565b826001600160a01b031661176282610bef565b6001600160a01b0316146117a75760405162461bcd60e51b81526004018080602001828103825260298152602001806126a46029913960400191505060405180910390fd5b6001600160a01b0382166117ec5760405162461bcd60e51b81526004018080602001828103825260248152602001806124f26024913960400191505060405180910390fd5b6117f78383836109e3565b611802600082611632565b6001600160a01b038316600090815260016020526040902061182a908263ffffffff611b9316565b506001600160a01b0382166000908152600160205260409020611853908263ffffffff611b9f16565b506118666002828463ffffffff611bab16565b5080826001600160a01b0316846001600160a01b03167fddf252ad1be2c89b69c2b068fc378daa952ba7f163c4a11628f55a4df523b3ef60405160405180910390a4505050565b6000828152600b602052604090206118cb908263ffffffff61160616565b15610acd576118d861162e565b6001600160a01b0316816001600160a01b0316837f2f8788117e7eff1d82e926ec794901d17c78024a50270940304540a733656f0d60405160405180910390a45050565b6000610af98383611bc1565b6000828152600b60205260409020611946908263ffffffff611c2516565b15610acd5761195361162e565b6001600160a01b0316816001600160a01b0316837ff6391f5c32d9c69d2a47ea670b442974b53935d1edc7fd64eb21e047a839171b60405160405180910390a45050565b610acd828260405180602001604052806000815250611c3a565b60008080806119c08686611c8c565b9097909650945050505050565b60006119da848484611d07565b90505b9392505050565b8051610acd9060099060208401906123b0565b6000610af9836001600160a01b038416611dd1565b611a1784848461174f565b611a2384848484611de9565b6111b05760405162461bcd60e51b815260040180806020018281038252603281526020018061249a6032913960400191505060405180910390fd5b606081611a8357506040805180820190915260018152600360fc1b602082015261080f565b8160005b8115611a9b57600101600a82049150611a87565b60608167ffffffffffffffff81118015611ab457600080fd5b506040519080825280601f01601f191660200182016040528015611adf576020820181803683370190505b50859350905060001982015b8315611b3057600a840660300160f81b82828060019003935081518110611b0e57fe5b60200101906001600160f81b031916908160001a905350600a84049350611aeb565b50949350505050565b6000611b458383611dd1565b611b7b57508154600181810184556000848152602080822090930184905584548482528286019093526040902091909155610afc565b506000610afc565b6000610af98383611dd1565b5490565b6000610af98383611f69565b6000610af98383611b39565b60006119da84846001600160a01b03851661202f565b81546000908210611c035760405162461bcd60e51b81526004018080602001828103825260228152602001806124496022913960400191505060405180910390fd5b826000018281548110611c1257fe5b9060005260206000200154905092915050565b6000610af9836001600160a01b038416611f69565b611c4483836120c6565b611c516000848484611de9565b6109e35760405162461bcd60e51b815260040180806020018281038252603281526020018061249a6032913960400191505060405180910390fd5b815460009081908310611cd05760405162461bcd60e51b81526004018080602001828103825260228152602001806126566022913960400191505060405180910390fd5b6000846000018481548110611ce157fe5b906000526020600020906002020190508060000154816001015492509250509250929050565b60008281526001840160205260408120548281611da25760405162461bcd60e51b81526004018080602001828103825283818151815260200191508051906020019080838360005b83811015611d67578181015183820152602001611d4f565b50505050905090810190601f168015611d945780820380516001836020036101000a031916815260200191505b509250505060405180910390fd5b50846000016001820381548110611db557fe5b9060005260206000209060020201600101549150509392505050565b60009081526001919091016020526040902054151590565b6000611dfd846001600160a01b0316612200565b611e0957506001611747565b6060611f2f630a85bd0160e11b611e1e61162e565b88878760405160240180856001600160a01b03166001600160a01b03168152602001846001600160a01b03166001600160a01b0316815260200183815260200180602001828103825283818151815260200191508051906020019080838360005b83811015611e97578181015183820152602001611e7f565b50505050905090810190601f168015611ec45780820380516001836020036101000a031916815260200191505b5095505050505050604051602081830303815290604052906001600160e01b0319166020820180516001600160e01b03838183161783525050505060405180606001604052806032815260200161249a603291396001600160a01b038816919063ffffffff61223916565b90506000818060200190516020811015611f4857600080fd5b50516001600160e01b031916630a85bd0160e11b1492505050949350505050565b600081815260018301602052604081205480156120255783546000198083019190810190600090879083908110611f9c57fe5b9060005260206000200154905080876000018481548110611fb957fe5b600091825260208083209091019290925582815260018981019092526040902090840190558654879080611fe957fe5b60019003818190600052602060002001600090559055866001016000878152602001908152602001600020600090556001945050505050610afc565b6000915050610afc565b6000828152600184016020526040812054806120945750506040805180820182528381526020808201848152865460018181018955600089815284812095516002909302909501918255915190820155865486845281880190925292909120556119dd565b828560000160018303815481106120a757fe5b90600052602060002090600202016001018190555060009150506119dd565b6001600160a01b038216612121576040805162461bcd60e51b815260206004820181905260248201527f4552433732313a206d696e7420746f20746865207a65726f2061646472657373604482015290519081900360640190fd5b61212a8161161b565b1561217c576040805162461bcd60e51b815260206004820152601c60248201527f4552433732313a20746f6b656e20616c7265616479206d696e74656400000000604482015290519081900360640190fd5b612188600083836109e3565b6001600160a01b03821660009081526001602052604090206121b0908263ffffffff611b9f16565b506121c36002828463ffffffff611bab16565b5060405181906001600160a01b038416906000907fddf252ad1be2c89b69c2b068fc378daa952ba7f163c4a11628f55a4df523b3ef908290a45050565b6000813f7fc5d2460186f7233c927e7db2dcc703c0e500b653ca82273b7bfad8045d85a470818114801590611747575050151592915050565b60606119da8484600085606061224e85612200565b61229f576040805162461bcd60e51b815260206004820152601d60248201527f416464726573733a2063616c6c20746f206e6f6e2d636f6e7472616374000000604482015290519081900360640190fd5b60006060866001600160a01b031685876040518082805190602001908083835b602083106122de5780518252601f1990920191602091820191016122bf565b6001836020036101000a03801982511681845116808217855250505050505090500191505060006040518083038185875af1925050503d8060008114612340576040519150601f19603f3d011682016040523d82523d6000602084013e612345565b606091505b509150915081156123595791506117479050565b8051156123695780518082602001fd5b60405162461bcd60e51b8152602060048201818152865160248401528651879391928392604401919085019080838360008315611d67578181015183820152602001611d4f565b828054600181600116156101000203166002900490600052602060002090601f016020900481019282601f106123f157805160ff191683800117855561241e565b8280016001018555821561241e579182015b8281111561241e578251825591602001919060010190612403565b5061242a92915061242e565b5090565b6108a891905b8082111561242a576000815560010161243456fe456e756d657261626c655365743a20696e646578206f7574206f6620626f756e6473416363657373436f6e74726f6c3a2073656e646572206d75737420626520616e2061646d696e20746f206772616e744552433732313a207472616e7366657220746f206e6f6e20455243373231526563656976657220696d706c656d656e7465724f776e61626c653a206e6577206f776e657220697320746865207a65726f20616464726573734552433732313a207472616e7366657220746f20746865207a65726f20616464726573734d696e746572526f6c653a2061646472657373207a65726f2063616e6e6f74206265206d696e7465724552433732313a206f70657261746f7220717565727920666f72206e6f6e6578697374656e7420746f6b656e416363657373436f6e74726f6c3a2073656e646572206d75737420626520616e2061646d696e20746f207265766f6b654552433732313a20617070726f76652063616c6c6572206973206e6f74206f776e6572206e6f7220617070726f76656420666f7220616c6c4552433732313a2062616c616e636520717565727920666f7220746865207a65726f20616464726573734552433732313a206f776e657220717565727920666f72206e6f6e6578697374656e7420746f6b656e4d696e746572526f6c653a2063616c6c657220646f6573206e6f74206861766520746865204d696e74657220726f6c65456e756d657261626c654d61703a20696e646578206f7574206f6620626f756e64734552433732313a20617070726f76656420717565727920666f72206e6f6e6578697374656e7420746f6b656e4552433732313a207472616e73666572206f6620746f6b656e2074686174206973206e6f74206f776e4552433732314d657461646174613a2055524920717565727920666f72206e6f6e6578697374656e7420746f6b656e4d696e746572526f6c653a2061646420616e206163636f756e7420616c7265616479206d696e7465724552433732313a20617070726f76616c20746f2063757272656e74206f776e65724552433732313a207472616e736665722063616c6c6572206973206e6f74206f776e6572206e6f7220617070726f766564416363657373436f6e74726f6c3a2063616e206f6e6c792072656e6f756e636520726f6c657320666f722073656c66a2646970667358221220f98cb2891daadf10ba1e7e11502ef33c4bd200d9e59cb22913871c225d86405064736f6c6343000608003368747470733a2f2f71756964642d6e66742d72696e6b6562792e616e696d6f63616272616e64732e636f6d2f6a736f6e2f",
  "immutableReferences": {},
  "source": "pragma solidity 0.6.8;\n\nimport \"@animoca/ethereum-contracts-core_library/contracts/access/MinterRole.sol\";\nimport \"@openzeppelin/contracts/token/ERC721/ERC721.sol\";\nimport \"@openzeppelin/contracts/access/Ownable.sol\";\n\ncontract BeastQuest is ERC721, Ownable, MinterRole {\n    constructor() \n    MinterRole() \n    ERC721(\"BeastQuest Ultimate Heroes\", \"BQUH\") \n    public\n    {\n        _setBaseURI(\"https://quidd-nft-rinkeby.animocabrands.com/json/\");\n    }\n\n    function mint(address to, uint256 tokenId) public onlyMinter {\n        _safeMint(to, tokenId);\n    }\n\n    function updateBaseTokenURI(string memory tokenURI) public onlyMinter {\n        _setBaseURI(tokenURI);\n    }\n}\n",
  "sourcePath": "/Users/yuriy/pro5/BeastQuest/contracts/token/BeastQuest.sol",
  "compiler": {
    "name": "solc",
    "version": "0.6.8+commit.0bbfe453.Emscripten.clang"
  },
  "schemaVersion": "3.2.0",
  "updatedAt": "2020-08-16T16:10:07.206Z",
  "devdoc": {
    "methods": {
      "addMinter(address)": {
        "params": {
          "account": "The account to grant the minter role to."
        }
      },
      "approve(address,uint256)": {
        "details": "See {IERC721-approve}."
      },
      "balanceOf(address)": {
        "details": "See {IERC721-balanceOf}."
      },
      "baseURI()": {
        "details": "Returns the base URI set via {_setBaseURI}. This will be automatically added as a prefix in {tokenURI} to each token's URI, or to the token ID if no specific URI is set for that token ID."
      },
      "getApproved(uint256)": {
        "details": "See {IERC721-getApproved}."
      },
      "getRoleAdmin(bytes32)": {
        "details": "Returns the admin role that controls `role`. See {grantRole} and {revokeRole}.     * To change a role's admin, use {_setRoleAdmin}."
      },
      "getRoleMember(bytes32,uint256)": {
        "details": "Returns one of the accounts that have `role`. `index` must be a value between 0 and {getRoleMemberCount}, non-inclusive.     * Role bearers are not sorted in any particular way, and their ordering may change at any point.     * WARNING: When using {getRoleMember} and {getRoleMemberCount}, make sure you perform all queries on the same block. See the following https://forum.openzeppelin.com/t/iterating-over-elements-on-enumerableset-in-openzeppelin-contracts/2296[forum post] for more information."
      },
      "getRoleMemberCount(bytes32)": {
        "details": "Returns the number of accounts that have `role`. Can be used together with {getRoleMember} to enumerate all bearers of a role."
      },
      "grantRole(bytes32,address)": {
        "details": "Grants `role` to `account`.     * If `account` had not been already granted `role`, emits a {RoleGranted} event.     * Requirements:     * - the caller must have ``role``'s admin role."
      },
      "hasRole(bytes32,address)": {
        "details": "Returns `true` if `account` has been granted `role`."
      },
      "isApprovedForAll(address,address)": {
        "details": "See {IERC721-isApprovedForAll}."
      },
      "isMinter(address)": {
        "params": {
          "account": "The account to validate."
        },
        "returns": {
          "_0": "True if the account has been granted the minter role, false otherwise."
        }
      },
      "name()": {
        "details": "See {IERC721Metadata-name}."
      },
      "owner()": {
        "details": "Returns the address of the current owner."
      },
      "ownerOf(uint256)": {
        "details": "See {IERC721-ownerOf}."
      },
      "renounceOwnership()": {
        "details": "Leaves the contract without owner. It will not be possible to call `onlyOwner` functions anymore. Can only be called by the current owner.     * NOTE: Renouncing ownership will leave the contract without an owner, thereby removing any functionality that is only available to the owner."
      },
      "renounceRole(bytes32,address)": {
        "details": "Revokes `role` from the calling account.     * Roles are often managed via {grantRole} and {revokeRole}: this function's purpose is to provide a mechanism for accounts to lose their privileges if they are compromised (such as when a trusted device is misplaced).     * If the calling account had been granted `role`, emits a {RoleRevoked} event.     * Requirements:     * - the caller must be `account`."
      },
      "revokeRole(bytes32,address)": {
        "details": "Revokes `role` from `account`.     * If `account` had been granted `role`, emits a {RoleRevoked} event.     * Requirements:     * - the caller must have ``role``'s admin role."
      },
      "safeTransferFrom(address,address,uint256)": {
        "details": "See {IERC721-safeTransferFrom}."
      },
      "safeTransferFrom(address,address,uint256,bytes)": {
        "details": "See {IERC721-safeTransferFrom}."
      },
      "setApprovalForAll(address,bool)": {
        "details": "See {IERC721-setApprovalForAll}."
      },
      "supportsInterface(bytes4)": {
        "details": "See {IERC165-supportsInterface}.     * Time complexity O(1), guaranteed to always use less than 30 000 gas."
      },
      "symbol()": {
        "details": "See {IERC721Metadata-symbol}."
      },
      "tokenByIndex(uint256)": {
        "details": "See {IERC721Enumerable-tokenByIndex}."
      },
      "tokenOfOwnerByIndex(address,uint256)": {
        "details": "See {IERC721Enumerable-tokenOfOwnerByIndex}."
      },
      "tokenURI(uint256)": {
        "details": "See {IERC721Metadata-tokenURI}."
      },
      "totalSupply()": {
        "details": "See {IERC721Enumerable-totalSupply}."
      },
      "transferFrom(address,address,uint256)": {
        "details": "See {IERC721-transferFrom}."
      },
      "transferOwnership(address)": {
        "details": "Transfers ownership of the contract to a new account (`newOwner`). Can only be called by the current owner."
      }
    }
  },
  "userdoc": {
    "methods": {
      "addMinter(address)": {
        "notice": "Grants the minter role to a non-minter."
      },
      "isMinter(address)": {
        "notice": "Validates whether or not the given account has been granted the minter role."
      },
      "renounceMinter()": {
        "notice": "Renounces the granted minter role."
      }
    }
  }
}