{
  "contractName": "BQSale",
  "abi": [
    {
      "inputs": [
        {
          "internalType": "address payable",
          "name": "payoutWallet",
          "type": "address"
        },
        {
          "internalType": "uint256",
          "name": "fungibleTokenId",
          "type": "uint256"
        },
        {
          "internalType": "address",
          "name": "inventoryContract",
          "type": "address"
        }
      ],
      "stateMutability": "nonpayable",
      "type": "constructor"
    },
    {
      "anonymous": false,
      "inputs": [
        {
          "indexed": false,
          "internalType": "uint256",
          "name": "lotId",
          "type": "uint256"
        },
        {
          "indexed": false,
          "internalType": "uint256[]",
          "name": "nonFungibleTokens",
          "type": "uint256[]"
        },
        {
          "indexed": false,
          "internalType": "uint256",
          "name": "fungibleAmount",
          "type": "uint256"
        },
        {
          "indexed": false,
          "internalType": "uint256",
          "name": "price",
          "type": "uint256"
        }
      ],
      "name": "LotCreated",
      "type": "event"
    },
    {
      "anonymous": false,
      "inputs": [
        {
          "indexed": false,
          "internalType": "uint256",
          "name": "lotId",
          "type": "uint256"
        },
        {
          "indexed": false,
          "internalType": "uint256",
          "name": "fungibleAmount",
          "type": "uint256"
        }
      ],
      "name": "LotFungibleAmountUpdated",
      "type": "event"
    },
    {
      "anonymous": false,
      "inputs": [
        {
          "indexed": false,
          "internalType": "uint256",
          "name": "lotId",
          "type": "uint256"
        },
        {
          "indexed": false,
          "internalType": "uint256[]",
          "name": "nonFungibleTokens",
          "type": "uint256[]"
        }
      ],
      "name": "LotNonFungibleSupplyUpdated",
      "type": "event"
    },
    {
      "anonymous": false,
      "inputs": [
        {
          "indexed": false,
          "internalType": "uint256",
          "name": "lotId",
          "type": "uint256"
        },
        {
          "indexed": false,
          "internalType": "uint256",
          "name": "price",
          "type": "uint256"
        }
      ],
      "name": "LotPriceUpdated",
      "type": "event"
    },
    {
      "anonymous": false,
      "inputs": [
        {
          "indexed": true,
          "internalType": "address",
          "name": "previousOwner",
          "type": "address"
        },
        {
          "indexed": true,
          "internalType": "address",
          "name": "newOwner",
          "type": "address"
        }
      ],
      "name": "OwnershipTransferred",
      "type": "event"
    },
    {
      "anonymous": false,
      "inputs": [
        {
          "indexed": false,
          "internalType": "address",
          "name": "account",
          "type": "address"
        }
      ],
      "name": "Paused",
      "type": "event"
    },
    {
      "anonymous": false,
      "inputs": [
        {
          "indexed": false,
          "internalType": "address",
          "name": "payoutWallet_",
          "type": "address"
        }
      ],
      "name": "PayoutWalletSet",
      "type": "event"
    },
    {
      "anonymous": false,
      "inputs": [
        {
          "indexed": true,
          "internalType": "address",
          "name": "recipient",
          "type": "address"
        },
        {
          "indexed": false,
          "internalType": "address",
          "name": "operator",
          "type": "address"
        },
        {
          "indexed": true,
          "internalType": "uint256",
          "name": "lotId",
          "type": "uint256"
        },
        {
          "indexed": true,
          "internalType": "uint256",
          "name": "quantity",
          "type": "uint256"
        },
        {
          "indexed": false,
          "internalType": "uint256[]",
          "name": "nonFungibleTokens",
          "type": "uint256[]"
        },
        {
          "indexed": false,
          "internalType": "uint256",
          "name": "totalFungibleAmount",
          "type": "uint256"
        },
        {
          "indexed": false,
          "internalType": "uint256",
          "name": "totalPrice",
          "type": "uint256"
        },
        {
          "indexed": false,
          "internalType": "uint256",
          "name": "totalDiscounts",
          "type": "uint256"
        },
        {
          "indexed": false,
          "internalType": "address",
          "name": "tokenAddress",
          "type": "address"
        },
        {
          "indexed": false,
          "internalType": "uint256",
          "name": "tokensSent",
          "type": "uint256"
        },
        {
          "indexed": false,
          "internalType": "uint256",
          "name": "tokensReceived",
          "type": "uint256"
        },
        {
          "indexed": false,
          "internalType": "string",
          "name": "extData",
          "type": "string"
        }
      ],
      "name": "Purchased",
      "type": "event"
    },
    {
      "anonymous": false,
      "inputs": [
        {
          "indexed": false,
          "internalType": "uint256",
          "name": "currentSupply",
          "type": "uint256"
        },
        {
          "indexed": false,
          "internalType": "uint256",
          "name": "supplyOffset",
          "type": "uint256"
        }
      ],
      "name": "RunningOutOfSupply",
      "type": "event"
    },
    {
      "anonymous": false,
      "inputs": [
        {
          "indexed": false,
          "internalType": "address",
          "name": "account",
          "type": "address"
        }
      ],
      "name": "Unpaused",
      "type": "event"
    },
    {
      "inputs": [],
      "name": "ONE_ADDRESS",
      "outputs": [
        {
          "internalType": "contract IERC20",
          "name": "",
          "type": "address"
        }
      ],
      "stateMutability": "view",
      "type": "function"
    },
    {
      "inputs": [],
      "name": "_MIN_SUPPLY",
      "outputs": [
        {
          "internalType": "uint256",
          "name": "",
          "type": "uint256"
        }
      ],
      "stateMutability": "view",
      "type": "function"
    },
    {
      "inputs": [],
      "name": "_fungibleTokenId",
      "outputs": [
        {
          "internalType": "uint256",
          "name": "",
          "type": "uint256"
        }
      ],
      "stateMutability": "view",
      "type": "function"
    },
    {
      "inputs": [],
      "name": "_inventoryContract",
      "outputs": [
        {
          "internalType": "address",
          "name": "",
          "type": "address"
        }
      ],
      "stateMutability": "view",
      "type": "function"
    },
    {
      "inputs": [],
      "name": "_lastUsedSeed",
      "outputs": [
        {
          "internalType": "uint256",
          "name": "",
          "type": "uint256"
        }
      ],
      "stateMutability": "view",
      "type": "function"
    },
    {
      "inputs": [
        {
          "internalType": "uint256",
          "name": "",
          "type": "uint256"
        }
      ],
      "name": "_lots",
      "outputs": [
        {
          "internalType": "bool",
          "name": "exists",
          "type": "bool"
        },
        {
          "internalType": "uint256",
          "name": "fungibleAmount",
          "type": "uint256"
        },
        {
          "internalType": "uint256",
          "name": "price",
          "type": "uint256"
        },
        {
          "internalType": "uint256",
          "name": "numAvailable",
          "type": "uint256"
        }
      ],
      "stateMutability": "view",
      "type": "function"
    },
    {
      "inputs": [
        {
          "internalType": "uint256",
          "name": "",
          "type": "uint256"
        }
      ],
      "name": "_nonFungibleSupply",
      "outputs": [
        {
          "internalType": "uint256",
          "name": "",
          "type": "uint256"
        }
      ],
      "stateMutability": "view",
      "type": "function"
    },
    {
      "inputs": [],
      "name": "_payoutTokenAddress",
      "outputs": [
        {
          "internalType": "contract IERC20",
          "name": "",
          "type": "address"
        }
      ],
      "stateMutability": "view",
      "type": "function"
    },
    {
      "inputs": [],
      "name": "_seed",
      "outputs": [
        {
          "internalType": "uint256",
          "name": "",
          "type": "uint256"
        }
      ],
      "stateMutability": "view",
      "type": "function"
    },
    {
      "inputs": [],
      "name": "_startedAt",
      "outputs": [
        {
          "internalType": "uint256",
          "name": "",
          "type": "uint256"
        }
      ],
      "stateMutability": "view",
      "type": "function"
    },
    {
      "inputs": [],
      "name": "_supplyOffset",
      "outputs": [
        {
          "internalType": "uint256",
          "name": "",
          "type": "uint256"
        }
      ],
      "stateMutability": "view",
      "type": "function"
    },
    {
      "inputs": [
        {
          "internalType": "uint256",
          "name": "lotId",
          "type": "uint256"
        },
        {
          "internalType": "uint256[]",
          "name": "nonFungibleSupply",
          "type": "uint256[]"
        },
        {
          "internalType": "uint256",
          "name": "fungibleAmount",
          "type": "uint256"
        },
        {
          "internalType": "uint256",
          "name": "price",
          "type": "uint256"
        }
      ],
      "name": "createLot",
      "outputs": [],
      "stateMutability": "nonpayable",
      "type": "function"
    },
    {
      "inputs": [
        {
          "internalType": "address payable",
          "name": "recipient",
          "type": "address"
        },
        {
          "internalType": "uint256",
          "name": "lotId",
          "type": "uint256"
        },
        {
          "internalType": "uint256",
          "name": "quantity",
          "type": "uint256"
        },
        {
          "internalType": "contract IERC20",
          "name": "tokenAddress",
          "type": "address"
        }
      ],
      "name": "getPrice",
      "outputs": [
        {
          "internalType": "uint256",
          "name": "minConversionRate",
          "type": "uint256"
        },
        {
          "internalType": "uint256",
          "name": "totalPrice",
          "type": "uint256"
        },
        {
          "internalType": "uint256",
          "name": "totalDiscounts",
          "type": "uint256"
        }
      ],
      "stateMutability": "view",
      "type": "function"
    },
    {
      "inputs": [],
      "name": "owner",
      "outputs": [
        {
          "internalType": "address",
          "name": "",
          "type": "address"
        }
      ],
      "stateMutability": "view",
      "type": "function"
    },
    {
      "inputs": [],
      "name": "pause",
      "outputs": [],
      "stateMutability": "nonpayable",
      "type": "function"
    },
    {
      "inputs": [],
      "name": "paused",
      "outputs": [
        {
          "internalType": "bool",
          "name": "",
          "type": "bool"
        }
      ],
      "stateMutability": "view",
      "type": "function"
    },
    {
      "inputs": [],
      "name": "payoutTokenAddress",
      "outputs": [
        {
          "internalType": "contract IERC20",
          "name": "",
          "type": "address"
        }
      ],
      "stateMutability": "view",
      "type": "function"
    },
    {
      "inputs": [],
      "name": "payoutWallet",
      "outputs": [
        {
          "internalType": "address payable",
          "name": "",
          "type": "address"
        }
      ],
      "stateMutability": "view",
      "type": "function"
    },
    {
      "inputs": [
        {
          "internalType": "uint256",
          "name": "lotId",
          "type": "uint256"
        },
        {
          "internalType": "uint256",
          "name": "count",
          "type": "uint256"
        }
      ],
      "name": "peekLotAvailableNonFungibleSupply",
      "outputs": [
        {
          "internalType": "uint256[]",
          "name": "",
          "type": "uint256[]"
        }
      ],
      "stateMutability": "view",
      "type": "function"
    },
    {
      "inputs": [
        {
          "internalType": "address payable",
          "name": "recipient",
          "type": "address"
        },
        {
          "internalType": "uint256",
          "name": "lotId",
          "type": "uint256"
        },
        {
          "internalType": "uint256",
          "name": "quantity",
          "type": "uint256"
        },
        {
          "internalType": "contract IERC20",
          "name": "tokenAddress",
          "type": "address"
        },
        {
          "internalType": "uint256",
          "name": "maxTokenAmount",
          "type": "uint256"
        },
        {
          "internalType": "uint256",
          "name": "minConversionRate",
          "type": "uint256"
        },
        {
          "internalType": "string",
          "name": "extData",
          "type": "string"
        }
      ],
      "name": "purchaseFor",
      "outputs": [],
      "stateMutability": "payable",
      "type": "function"
    },
    {
      "inputs": [],
      "name": "renounceOwnership",
      "outputs": [],
      "stateMutability": "nonpayable",
      "type": "function"
    },
    {
      "inputs": [
        {
          "internalType": "uint256",
          "name": "fungibleTokenId",
          "type": "uint256"
        }
      ],
      "name": "setFungibleTokenId",
      "outputs": [],
      "stateMutability": "nonpayable",
      "type": "function"
    },
    {
      "inputs": [
        {
          "internalType": "address",
          "name": "inventoryContract",
          "type": "address"
        }
      ],
      "name": "setInventoryContract",
      "outputs": [],
      "stateMutability": "nonpayable",
      "type": "function"
    },
    {
      "inputs": [
        {
          "internalType": "contract IERC20",
          "name": "payoutTokenAddress",
          "type": "address"
        }
      ],
      "name": "setPayoutTokenAddress",
      "outputs": [],
      "stateMutability": "nonpayable",
      "type": "function"
    },
    {
      "inputs": [
        {
          "internalType": "address",
          "name": "payoutWallet_",
          "type": "address"
        }
      ],
      "name": "setPayoutWallet",
      "outputs": [],
      "stateMutability": "nonpayable",
      "type": "function"
    },
    {
      "inputs": [],
      "name": "start",
      "outputs": [],
      "stateMutability": "nonpayable",
      "type": "function"
    },
    {
      "inputs": [
        {
          "internalType": "address",
          "name": "newOwner",
          "type": "address"
        }
      ],
      "name": "transferOwnership",
      "outputs": [],
      "stateMutability": "nonpayable",
      "type": "function"
    },
    {
      "inputs": [],
      "name": "unpause",
      "outputs": [],
      "stateMutability": "nonpayable",
      "type": "function"
    },
    {
      "inputs": [
        {
          "internalType": "uint256",
          "name": "lotId",
          "type": "uint256"
        },
        {
          "internalType": "uint256",
          "name": "fungibleAmount",
          "type": "uint256"
        }
      ],
      "name": "updateLotFungibleAmount",
      "outputs": [],
      "stateMutability": "nonpayable",
      "type": "function"
    },
    {
      "inputs": [
        {
          "internalType": "uint256",
          "name": "lotId",
          "type": "uint256"
        },
        {
          "internalType": "uint256[]",
          "name": "nonFungibleTokens",
          "type": "uint256[]"
        }
      ],
      "name": "updateLotNonFungibleSupply",
      "outputs": [],
      "stateMutability": "nonpayable",
      "type": "function"
    },
    {
      "inputs": [
        {
          "internalType": "uint256",
          "name": "lotId",
          "type": "uint256"
        },
        {
          "internalType": "uint256",
          "name": "price",
          "type": "uint256"
        }
      ],
      "name": "updateLotPrice",
      "outputs": [],
      "stateMutability": "nonpayable",
      "type": "function"
    },
    {
      "inputs": [
        {
          "internalType": "uint256[]",
          "name": "nonFungibleTokens",
          "type": "uint256[]"
        },
        {
          "internalType": "uint256",
          "name": "supplyOffset",
          "type": "uint256"
        }
      ],
      "name": "updateNonFungibleSupply",
      "outputs": [],
      "stateMutability": "nonpayable",
      "type": "function"
    },
    {
      "inputs": [
        {
          "internalType": "uint256",
          "name": "seed",
          "type": "uint256"
        }
      ],
      "name": "setRandomnessSeed",
      "outputs": [],
      "stateMutability": "nonpayable",
      "type": "function"
    }
  ],
  "bytecode": "0x60806040523480156200001157600080fd5b506040516200331338038062003313833981810160405260608110156200003757600080fd5b50805160208201516040909201516000805460ff19168155919291839073eeeeeeeeeeeeeeeeeeeeeeeeeeeeeeeeeeeeeeee90849084908490620000836001600160e01b036200014616565b60008054610100600160a81b0319166101006001600160a01b038416908102919091178255604051929350917f8be0079c531659141344cd1fd0a4f28419497f9722a3daafe3b4186f6b6457e0908290a350620000e9816001600160e01b036200014a16565b50620000fd6001600160e01b03620002ee16565b62000111836001600160e01b036200036d16565b62000125826001600160e01b036200048116565b62000139816001600160e01b036200051916565b505050505050506200068d565b3390565b6200015d6001600160e01b036200014616565b60005461010090046001600160a01b03908116911614620001b4576040805162461bcd60e51b81526020600482018190526024820152600080516020620032f3833981519152604482015290519081900360640190fd5b6001600160a01b038116620001fb5760405162461bcd60e51b815260040180806020018281038252602e815260200180620032c5602e913960400191505060405180910390fd5b6001600160a01b038116301415620002455760405162461bcd60e51b8152600401808060200182810382526031815260200180620032716031913960400191505060405180910390fd5b6001546001600160a01b0382811691161415620002945760405162461bcd60e51b8152600401808060200182810382526023815260200180620032a26023913960400191505060405180910390fd5b600180546001600160a01b0319166001600160a01b03838116919091179182905560408051929091168252517fdd880d24a789958a6398c99c2e54ce31bc10a638cbc42f7dd34285479ae0f855916020908290030190a150565b620003016001600160e01b036200014616565b60005461010090046001600160a01b0390811691161462000358576040805162461bcd60e51b81526020600482018190526024820152600080516020620032f3833981519152604482015290519081900360640190fd5b6200036b6001600160e01b03620005e316565b565b620003806001600160e01b036200014616565b60005461010090046001600160a01b03908116911614620003d7576040805162461bcd60e51b81526020600482018190526024820152600080516020620032f3833981519152604482015290519081900360640190fd5b60005460ff166200042f576040805162461bcd60e51b815260206004820152601460248201527f5061757361626c653a206e6f7420706175736564000000000000000000000000604482015290519081900360640190fd5b6001600160a01b0381166200044357600080fd5b6002546001600160a01b03828116911614156200045f57600080fd5b600280546001600160a01b0319166001600160a01b0392909216919091179055565b620004946001600160e01b036200014616565b60005461010090046001600160a01b03908116911614620004eb576040805162461bcd60e51b81526020600482018190526024820152600080516020620032f3833981519152604482015290519081900360640190fd5b60065415620004f957600080fd5b806200050457600080fd5b6003548114156200051457600080fd5b600355565b6200052c6001600160e01b036200014616565b60005461010090046001600160a01b0390811691161462000583576040805162461bcd60e51b81526020600482018190526024820152600080516020620032f3833981519152604482015290519081900360640190fd5b600654156200059157600080fd5b6001600160a01b038116620005a557600080fd5b6004546001600160a01b0382811691161415620005c157600080fd5b600480546001600160a01b0319166001600160a01b0392909216919091179055565b60005460ff16156200062f576040805162461bcd60e51b815260206004820152601060248201526f14185d5cd8589b194e881c185d5cd95960821b604482015290519081900360640190fd5b6000805460ff191660011790557f62e78cea01bee320cd4e420270b5ea74000d11b0c9f74754ebdbfc544b05a258620006706001600160e01b036200014616565b604080516001600160a01b039092168252519081900360200190a1565b612bd4806200069d6000396000f3fe6080604052600436106101ee5760003560e01c80635cc048381161010d57806394ac5d4d116100a0578063dcc1a4da1161006f578063dcc1a4da146104ff578063e7fe75a7146107c7578063eba5fd89146107dc578063f2fde38b1461088c578063f891add1146108bf576101ee565b806394ac5d4d1461064e578063a871431414610708578063be9a655514610788578063cbcd26f01461079d576101ee565b80638456cb59116100dc5780638456cb59146105fa5780638488bb4e1461060f57806386e2106a146106245780638da5cb5b14610639576101ee565b80635cc04838146104ff5780636773e696146105305780636b8f9c43146105b2578063715018a6146105e5576101ee565b80634069c0271161018557806356079637116101545780635607963714610479578063570f903e146104ac5780635a34d356146104c15780635c975abb146104d6576101ee565b80634069c0271461034c578063530023c51461036157806353448d7d146103c6578063545370b214610464576101ee565b8063261063db116101c1578063261063db146102ce57806328af219e146102f85780632d3872741461030d5780633f4ba83a14610337576101ee565b806317870a9f146101f3578063205fe33914610225578063211d4ee91461027757806321b09b6d1461029e575b600080fd5b3480156101ff57600080fd5b506102236004803603604081101561021657600080fd5b50803590602001356108f2565b005b34801561023157600080fd5b5061024f6004803603602081101561024857600080fd5b5035610a2a565b6040805194151585526020850193909352838301919091526060830152519081900360800190f35b34801561028357600080fd5b5061028c610a55565b60408051918252519081900360200190f35b3480156102aa57600080fd5b50610223600480360360408110156102c157600080fd5b5080359060200135610a5b565b3480156102da57600080fd5b5061028c600480360360208110156102f157600080fd5b5035610b93565b34801561030457600080fd5b5061028c610bb1565b34801561031957600080fd5b506102236004803603602081101561033057600080fd5b5035610bb7565b34801561034357600080fd5b50610223610c19565b34801561035857600080fd5b5061028c610c80565b34801561036d57600080fd5b506103a86004803603608081101561038457600080fd5b506001600160a01b0381358116916020810135916040820135916060013516610c86565b60408051938452602084019290925282820152519081900360600190f35b610223600480360360e08110156103dc57600080fd5b6001600160a01b0382358116926020810135926040820135926060830135169160808101359160a0820135919081019060e0810160c0820135600160201b81111561042657600080fd5b82018360208201111561043857600080fd5b803590602001918460018302840111600160201b8311171561045957600080fd5b509092509050610d8b565b34801561047057600080fd5b5061028c610f8e565b34801561048557600080fd5b506102236004803603602081101561049c57600080fd5b50356001600160a01b0316610f94565b3480156104b857600080fd5b5061028c61104e565b3480156104cd57600080fd5b5061028c611053565b3480156104e257600080fd5b506104eb611059565b604080519115158252519081900360200190f35b34801561050b57600080fd5b50610514611063565b604080516001600160a01b039092168252519081900360200190f35b34801561053c57600080fd5b506102236004803603604081101561055357600080fd5b81359190810190604081016020820135600160201b81111561057457600080fd5b82018360208201111561058657600080fd5b803590602001918460208302840111600160201b831117156105a757600080fd5b50909250905061107b565b3480156105be57600080fd5b50610223600480360360208110156105d557600080fd5b50356001600160a01b0316611391565b3480156105f157600080fd5b50610223611522565b34801561060657600080fd5b506102236115ce565b34801561061b57600080fd5b50610514611633565b34801561063057600080fd5b50610514611642565b34801561064557600080fd5b50610514611651565b34801561065a57600080fd5b506102236004803603608081101561067157600080fd5b81359190810190604081016020820135600160201b81111561069257600080fd5b8201836020820111156106a457600080fd5b803590602001918460208302840111600160201b831117156106c557600080fd5b9190808060200260200160405190810160405280939291908181526020018383602002808284376000920191909152509295505082359350505060200135611665565b34801561071457600080fd5b506107386004803603604081101561072b57600080fd5b50803590602001356117fa565b60408051602080825283518183015283519192839290830191858101910280838360005b8381101561077457818101518382015260200161075c565b505050509050019250505060405180910390f35b34801561079457600080fd5b5061022361198a565b3480156107a957600080fd5b50610223600480360360208110156107c057600080fd5b5035611a00565b3480156107d357600080fd5b50610514611a88565b3480156107e857600080fd5b50610223600480360360408110156107ff57600080fd5b810190602081018135600160201b81111561081957600080fd5b82018360208201111561082b57600080fd5b803590602001918460208302840111600160201b8311171561084c57600080fd5b9190808060200260200160405190810160405280939291908181526020018383602002808284376000920191909152509295505091359250611a97915050565b34801561089857600080fd5b50610223600480360360208110156108af57600080fd5b50356001600160a01b0316611c1d565b3480156108cb57600080fd5b50610223600480360360208110156108e257600080fd5b50356001600160a01b0316611d25565b6108fa611e20565b60005461010090046001600160a01b0390811691161461094f576040805162461bcd60e51b81526020600482018190526024820152600080516020612b46833981519152604482015290519081900360640190fd5b60005460ff1661099d576040805162461bcd60e51b815260206004820152601460248201527314185d5cd8589b194e881b9bdd081c185d5cd95960621b604482015290519081900360640190fd5b60008281526005602052604090205460ff166109b857600080fd5b6000828152600560205260409020600301548114156109d657600080fd5b600082815260056020908152604091829020600301839055815184815290810183905281517f308309ae1e42f6780909fc0fca3307fb3968ad48c097b225a6e7c83bc67a49d8929181900390910190a15050565b600560205260009081526040902080546002820154600383015460049093015460ff90921692909184565b600a5481565b610a63611e20565b60005461010090046001600160a01b03908116911614610ab8576040805162461bcd60e51b81526020600482018190526024820152600080516020612b46833981519152604482015290519081900360640190fd5b60005460ff16610b06576040805162461bcd60e51b815260206004820152601460248201527314185d5cd8589b194e881b9bdd081c185d5cd95960621b604482015290519081900360640190fd5b60008281526005602052604090205460ff16610b2157600080fd5b600082815260056020526040902060020154811415610b3f57600080fd5b600082815260056020908152604091829020600201839055815184815290810183905281517f3224a1e230cbcef28c03d750e29a0a2b674de25bdf58594803cc7e54b797119e929181900390910190a15050565b60078181548110610ba057fe5b600091825260209091200154905081565b60035481565b610bbf611e20565b60005461010090046001600160a01b03908116911614610c14576040805162461bcd60e51b81526020600482018190526024820152600080516020612b46833981519152604482015290519081900360640190fd5b600955565b610c21611e20565b60005461010090046001600160a01b03908116911614610c76576040805162461bcd60e51b81526020600482018190526024820152600080516020612b46833981519152604482015290519081900360640190fd5b610c7e611e24565b565b60085481565b6000806000610c936128ff565b600087815260056020908152604091829020825160a081018452815460ff161515815260018201805485518186028101860190965280865291949293858101939290830182828015610d0457602002820191906000526020600020905b815481526020019060010190808311610cf0575b50505050508152602001600282015481526020016003820154815260200160048201548152505090508060000151610d3b57600080fd5b6001600160a01b038516610d4e57600080fd5b610d59888288611ec2565b60025491945092506001600160a01b0386811691161415610d8057670de0b6b3a764000093505b509450945094915050565b60005460ff1615610dd6576040805162461bcd60e51b815260206004820152601060248201526f14185d5cd8589b194e881c185d5cd95960821b604482015290519081900360640190fd5b600654610de257600080fd5b6001600160a01b038816610df557600080fd5b6001600160a01b038816301415610e0b57600080fd5b60008611610e1857600080fd5b6001600160a01b038516610e2b57600080fd5b610e33612930565b6001600160a01b03808a16825260208083018a905260408084018a905291881660608401526080830187905260a083018690528151601f85018290048202810182019092528382528490849081908401838280828437600092018290525060c086019490945250503360e08401525088815260056020908152604091829020825160a081018452815460ff161515815260018201805485518186028101860190965280865291949293858101939290830182828015610f1157602002820191906000526020600020905b815481526020019060010190808311610efd575b50505091835250506002820154602082015260038201546040820152600490910154606090910152610100820181905251610f4b57600080fd5b610f5487611ee8565b61012082015261010081015160400151610f74908863ffffffff61220d16565b610140820152610f838161226d565b505050505050505050565b60065481565b610f9c611e20565b60005461010090046001600160a01b03908116911614610ff1576040805162461bcd60e51b81526020600482018190526024820152600080516020612b46833981519152604482015290519081900360640190fd5b60065415610ffe57600080fd5b6001600160a01b03811661101157600080fd5b6004546001600160a01b038281169116141561102c57600080fd5b600480546001600160a01b0319166001600160a01b0392909216919091179055565b603281565b60095481565b60005460ff165b90565b73eeeeeeeeeeeeeeeeeeeeeeeeeeeeeeeeeeeeeeee81565b611083611e20565b60005461010090046001600160a01b039081169116146110d8576040805162461bcd60e51b81526020600482018190526024820152600080516020612b46833981519152604482015290519081900360640190fd5b600654156110e557600080fd5b806110ef57600080fd5b6110f76128ff565b600084815260056020908152604091829020825160a081018452815460ff16151581526001820180548551818602810186019096528086529194929385810193929083018282801561116857602002820191906000526020600020905b815481526020019060010190808311611154575b5050505050815260200160028201548152602001600382015481526020016004820154815250509050806000015161119f57600080fd5b6020810151516000906111b8908463ffffffff6122ac16565b905060608167ffffffffffffffff811180156111d357600080fd5b506040519080825280602002602001820160405280156111fd578160200160208202803683370190505b50905060005b836020015151811015611247578360200151818151811061122057fe5b602002602001015182828151811061123457fe5b6020908102919091010152600101611203565b5060005b848110156112a257600061126d856020015151836122ac90919063ffffffff16565b905086868381811061127b57fe5b9050602002013583828151811061128e57fe5b60209081029190910101525060010161124b565b506020830181905260808301516112bf908563ffffffff6122ac16565b608084015260008681526005602090815260409091208451815460ff191690151517815581850151805186936112fc9260018501929101906129c7565b506040820151816002015560608201518160030155608082015181600401559050507ffe86f1bccfeda18935f449237d256da18cdba398ce10b99c728fbf50558ca70486868660405180848152602001806020018281038252848482818152602001925060200280828437600083820152604051601f909101601f1916909201829003965090945050505050a1505050505050565b611399611e20565b60005461010090046001600160a01b039081169116146113ee576040805162461bcd60e51b81526020600482018190526024820152600080516020612b46833981519152604482015290519081900360640190fd5b6001600160a01b0381166114335760405162461bcd60e51b815260040180806020018281038252602e815260200180612b18602e913960400191505060405180910390fd5b6001600160a01b03811630141561147b5760405162461bcd60e51b8152600401808060200182810382526031815260200180612a2d6031913960400191505060405180910390fd5b6001546001600160a01b03828116911614156114c85760405162461bcd60e51b8152600401808060200182810382526023815260200180612ab16023913960400191505060405180910390fd5b600180546001600160a01b0319166001600160a01b03838116919091179182905560408051929091168252517fdd880d24a789958a6398c99c2e54ce31bc10a638cbc42f7dd34285479ae0f855916020908290030190a150565b61152a611e20565b60005461010090046001600160a01b0390811691161461157f576040805162461bcd60e51b81526020600482018190526024820152600080516020612b46833981519152604482015290519081900360640190fd5b600080546040516101009091046001600160a01b0316907f8be0079c531659141344cd1fd0a4f28419497f9722a3daafe3b4186f6b6457e0908390a360008054610100600160a81b0319169055565b6115d6611e20565b60005461010090046001600160a01b0390811691161461162b576040805162461bcd60e51b81526020600482018190526024820152600080516020612b46833981519152604482015290519081900360640190fd5b610c7e612306565b6001546001600160a01b031681565b6004546001600160a01b031681565b60005461010090046001600160a01b031690565b61166d611e20565b60005461010090046001600160a01b039081169116146116c2576040805162461bcd60e51b81526020600482018190526024820152600080516020612b46833981519152604482015290519081900360640190fd5b600654156116cf57600080fd5b60008481526005602052604090205460ff16156116eb57600080fd5b6116f36128ff565b6001808252602080830186815260408085018790526060850186905287516080860152600089815260058452208451815460ff191690151517815590518051859492936117449385019201906129c7565b506040820151816002015560608201518160030155608082015181600401559050507f092e0fdb6c3d4facae6301fcf8ca0a2a72704004716d07d6399a4b5d6d5697db858585856040518085815260200180602001848152602001838152602001828103825285818151815260200191508051906020019060200280838360005b838110156117dd5781810151838201526020016117c5565b505050509050019550505050505060405180910390a15050505050565b60606118046128ff565b600084815260056020908152604091829020825160a081018452815460ff16151581526001820180548551818602810186019096528086529194929385810193929083018282801561187557602002820191906000526020600020905b815481526020019060010190808311611861575b505050505081526020016002820154815260200160038201548152602001600482015481525050905080600001516118ac57600080fd5b80608001518311156118c057806080015192505b60608367ffffffffffffffff811180156118d957600080fd5b50604051908082528060200260200182016040528015611903578160200160208202803683370190505b5090506000611924836080015184602001515161238790919063ffffffff16565b905060005b8581101561197d576000611943838363ffffffff6122ac16565b90508460200151818151811061195557fe5b602002602001015184838151811061196957fe5b602090810291909101015250600101611929565b5090925050505b92915050565b611992611e20565b60005461010090046001600160a01b039081169116146119e7576040805162461bcd60e51b81526020600482018190526024820152600080516020612b46833981519152604482015290519081900360640190fd5b600654156119f457600080fd5b42600655610c7e610c19565b611a08611e20565b60005461010090046001600160a01b03908116911614611a5d576040805162461bcd60e51b81526020600482018190526024820152600080516020612b46833981519152604482015290519081900360640190fd5b60065415611a6a57600080fd5b80611a7457600080fd5b600354811415611a8357600080fd5b600355565b6002546001600160a01b031681565b611a9f611e20565b60005461010090046001600160a01b03908116911614611af4576040805162461bcd60e51b81526020600482018190526024820152600080516020612b46833981519152604482015290519081900360640190fd5b6000825111611b0257600080fd5b8151600754600091611b1a919063ffffffff6122ac16565b905060608167ffffffffffffffff81118015611b3557600080fd5b50604051908082528060200260200182016040528015611b5f578160200160208202803683370190505b50905060005b600754811015611ba65760078181548110611b7c57fe5b9060005260206000200154828281518110611b9357fe5b6020908102919091010152600101611b65565b5060005b8451811015611c0057600754600090611bca90839063ffffffff6122ac16565b9050858281518110611bd857fe5b6020026020010151838281518110611bec57fe5b602090810291909101015250600101611baa565b508051611c149060079060208401906129c7565b50505060085550565b611c25611e20565b60005461010090046001600160a01b03908116911614611c7a576040805162461bcd60e51b81526020600482018190526024820152600080516020612b46833981519152604482015290519081900360640190fd5b6001600160a01b038116611cbf5760405162461bcd60e51b8152600401808060200182810382526026815260200180612a5e6026913960400191505060405180910390fd5b600080546040516001600160a01b038085169361010090930416917f8be0079c531659141344cd1fd0a4f28419497f9722a3daafe3b4186f6b6457e091a3600080546001600160a01b0390921661010002610100600160a81b0319909216919091179055565b611d2d611e20565b60005461010090046001600160a01b03908116911614611d82576040805162461bcd60e51b81526020600482018190526024820152600080516020612b46833981519152604482015290519081900360640190fd5b60005460ff16611dd0576040805162461bcd60e51b815260206004820152601460248201527314185d5cd8589b194e881b9bdd081c185d5cd95960621b604482015290519081900360640190fd5b6001600160a01b038116611de357600080fd5b6002546001600160a01b0382811691161415611dfe57600080fd5b600280546001600160a01b0319166001600160a01b0392909216919091179055565b3390565b60005460ff16611e72576040805162461bcd60e51b815260206004820152601460248201527314185d5cd8589b194e881b9bdd081c185d5cd95960621b604482015290519081900360640190fd5b6000805460ff191690557f5db9ee0a495bf2e6ff9c91a7834c1ba4fdd244a5e8aa4e537bd38aeae4b073aa611ea5611e20565b604080516001600160a01b039092168252519081900360200190a1565b600080611edc83856060015161220d90919063ffffffff16565b95600095509350505050565b60075460609082811015611f37576040805162461bcd60e51b81526020600482015260116024820152706e6f7420656e6f75676820737570706c7960781b604482015290519081900360640190fd5b600954600a541415611f7a5760405162461bcd60e51b8152600401808060200182810382526023815260200180612ad46023913960400191505060405180910390fd5b600954600a5560608167ffffffffffffffff81118015611f9957600080fd5b50604051908082528060200260200182016040528015611fc3578160200160208202803683370190505b50905060005b8281101561209557600060078281548110611fe057fe5b90600052602060002001549050600084824243600954604051602001808581526020018481526020018381526020018281526020019450505050506040516020818303038152906040528051906020012060001c8161203b57fe5b069050805b84818151811061204c57fe5b602002602001015160001461206f5785816001018161206757fe5b069050612040565b8091508285838151811061207f57fe5b6020908102919091010152505050600101611fc9565b5060608467ffffffffffffffff811180156120af57600080fd5b506040519080825280602002602001820160405280156120d9578160200160208202803683370190505b50905060005b8581101561211a578281815181106120f357fe5b602002602001015182828151811061210757fe5b60209081029190910101526001016120df565b50606085840367ffffffffffffffff8111801561213657600080fd5b50604051908082528060200260200182016040528015612160578160200160208202803683370190505b509050855b848110156121a25783818151811061217957fe5b6020026020010151828883038151811061218f57fe5b6020908102919091010152600101612165565b5080516121b69060079060208401906129c7565b50600754603211156122045760075460085460408051928352602083019190915280517f3ac945e3d2c5d193eb3453a08fca9be1c0b192e5b37fc5be9b9c0d4fd74f3d129281900390910190a15b50949350505050565b60008261221c57506000611984565b8282028284828161222957fe5b04146122665760405162461bcd60e51b8152600401808060200182810382526021815260200180612af76021913960400191505060405180910390fd5b9392505050565b612276816123c9565b61018083015261016082015261228b816123fb565b6101c08301526101a08201526122a081612602565b6122a9816126e8565b50565b600082820183811015612266576040805162461bcd60e51b815260206004820152601b60248201527f536166654d6174683a206164646974696f6e206f766572666c6f770000000000604482015290519081900360640190fd5b60005460ff1615612351576040805162461bcd60e51b815260206004820152601060248201526f14185d5cd8589b194e881c185d5cd95960821b604482015290519081900360640190fd5b6000805460ff191660011790557f62e78cea01bee320cd4e420270b5ea74000d11b0c9f74754ebdbfc544b05a258611ea5611e20565b600061226683836040518060400160405280601e81526020017f536166654d6174683a207375627472616374696f6e206f766572666c6f770000815250612868565b6000806123e483600001518461010001518560400151611ec2565b9092509050818111156123f657600080fd5b915091565b600080600061241d84610180015185610160015161238790919063ffffffff16565b905061242d818560a0015161220d565b6002549091506001600160a01b031673eeeeeeeeeeeeeeeeeeeeeeeeeeeeeeeeeeeeeeee141561253057803410156124965760405162461bcd60e51b815260040180806020018281038252602d815260200180612a84602d913960400191505060405180910390fd5b6001546040516001600160a01b039091169082156108fc029083906000818181858888f193505050501580156124d0573d6000803e3d6000fd5b5060006124e3348363ffffffff61238716565b9050801561252a578460e001516001600160a01b03166108fc829081150290604051600060405180830381858888f19350505050158015612528573d6000803e3d6000fd5b505b506125fc565b60025460e0850151600154604080516323b872dd60e01b81526001600160a01b0393841660048201529183166024830152604482018590525191909216916323b872dd9160648083019260209291908290030181600087803b15801561259557600080fd5b505af11580156125a9573d6000803e3d6000fd5b505050506040513d60208110156125bf57600080fd5b50516125fc5760405162461bcd60e51b8152600401808060200182810382526039815260200180612b666039913960400191505060405180910390fd5b50915091565b80516001600160a01b031661261657600080fd5b80516001600160a01b031630141561262d57600080fd5b60005b816101200151518110156126e457600454825161012084015180516001600160a01b03909316926340c10f199291908590811061266957fe5b60200260200101516040518363ffffffff1660e01b815260040180836001600160a01b03166001600160a01b0316815260200182815260200192505050600060405180830381600087803b1580156126c057600080fd5b505af11580156126d4573d6000803e3d6000fd5b5050600190920191506126309050565b5050565b8060400151816020015182600001516001600160a01b03167ff40d091840b85db3e39f3dd62b7171c26fd7777b9c7099b76094db4dd9689a6b8460e0015185610120015186610140015187610160015188610180015189606001518a6101a001518b6101c001518c60c00151604051808a6001600160a01b03166001600160a01b0316815260200180602001898152602001888152602001878152602001866001600160a01b03166001600160a01b031681526020018581526020018481526020018060200183810383528b818151815260200191508051906020019060200280838360005b838110156127e65781810151838201526020016127ce565b50505050905001838103825284818151815260200191508051906020019080838360005b8381101561282257818101518382015260200161280a565b50505050905090810190601f16801561284f5780820380516001836020036101000a031916815260200191505b509b50505050505050505050505060405180910390a450565b600081848411156128f75760405162461bcd60e51b81526004018080602001828103825283818151815260200191508051906020019080838360005b838110156128bc5781810151838201526020016128a4565b50505050905090810190601f1680156128e95780820380516001836020036101000a031916815260200191505b509250505060405180910390fd5b505050900390565b6040518060a00160405280600015158152602001606081526020016000815260200160008152602001600081525090565b604051806101e0016040528060006001600160a01b03168152602001600081526020016000815260200160006001600160a01b0316815260200160008152602001600081526020016060815260200160006001600160a01b031681526020016129976128ff565b81526020016060815260200160008152602001600081526020016000815260200160008152602001600081525090565b828054828255906000526020600020908101928215612a02579160200282015b82811115612a025782518255916020019190600101906129e7565b50612a0e929150612a12565b5090565b61106091905b80821115612a0e5760008155600101612a1856fe546865207061796f75742077616c6c6574206d757374206e6f742062652074686520636f6e747261637420697473656c664f776e61626c653a206e6577206f776e657220697320746865207a65726f20616464726573734669786564537570706c794c6f7453616c653a20696e73756666696369656e74204f4e452070726f7669646564546865207061796f75742077616c6c6574206d75737420626520646966666572656e7473656564206e6f7420757064617465642066726f6d206c617374207075726368617365536166654d6174683a206d756c7469706c69636174696f6e206f766572666c6f77546865207061796f75742077616c6c6574206d757374206e6f7420626520746865207a65726f20616464726573734f776e61626c653a2063616c6c6572206973206e6f7420746865206f776e65724669786564537570706c794c6f7453616c653a206661696c75726520696e207472616e7366657272696e67204552433230207061796d656e74a26469706673582212201fc18c8df059d8055447b058f8ca9a50652e6b2a4fe9350f4c1ef117cb72ee9464736f6c63430006080033546865207061796f75742077616c6c6574206d757374206e6f742062652074686520636f6e747261637420697473656c66546865207061796f75742077616c6c6574206d75737420626520646966666572656e74546865207061796f75742077616c6c6574206d757374206e6f7420626520746865207a65726f20616464726573734f776e61626c653a2063616c6c6572206973206e6f7420746865206f776e6572",
  "immutableReferences": {},
  "source": "pragma solidity 0.6.8;\n\nimport \"./FixedSupplyLotSale.sol\";\nimport \"../token/BeastQuest.sol\";\n\ncontract BQSale is FixedSupplyLotSale {\n    uint256[] public _nonFungibleSupply;\n    uint256 public _supplyOffset;\n    uint256 public _seed;\n    uint256 public _lastUsedSeed;\n    uint256 public constant _MIN_SUPPLY = 50;\n\n    event RunningOutOfSupply(uint256 currentSupply, uint256 supplyOffset);\n\n    IERC20 public constant payoutTokenAddress = IERC20(0x00eeeeeeeeeeeeeeeeeeeeeeeeeeeeeeeeeeeeeeee);\n\n    constructor(\n        address payable payoutWallet,\n        // IERC20 payoutTokenAddress,\n        uint256 fungibleTokenId,\n        address inventoryContract\n    )\n        public\n        FixedSupplyLotSale(\n            payoutWallet,\n            payoutTokenAddress,\n            fungibleTokenId,\n            inventoryContract\n        )\n    {}\n\n    /**\n     * @dev Sets or updates the nonFungibleSupply for the sale.\n     * @param nonFungibleTokens supply to be updated.\n     */\n    function updateNonFungibleSupply(uint256[] memory nonFungibleTokens, uint256 supplyOffset)\n        public\n        onlyOwner\n    // whenNotStarted\n    {\n        require(nonFungibleTokens.length > 0);\n\n        uint256 newSupplySize = _nonFungibleSupply.length.add(nonFungibleTokens.length);\n        uint256[] memory newNonFungibleSupply = new uint256[](newSupplySize);\n\n        for (uint256 index = 0; index < _nonFungibleSupply.length; index++) {\n            newNonFungibleSupply[index] = _nonFungibleSupply[index];\n        }\n\n        for (uint256 index = 0; index < nonFungibleTokens.length; index++) {\n            uint256 offset = index.add(_nonFungibleSupply.length);\n            newNonFungibleSupply[offset] = nonFungibleTokens[index];\n        }\n\n        _nonFungibleSupply = newNonFungibleSupply;\n        _supplyOffset = supplyOffset;\n    }\n\n    function setRandomnessSeed(uint256 seed) public onlyOwner // whenNotStarted\n    {\n        _seed = seed;\n    }\n\n    function _randomlySelectAndUpdate(uint256 quantity)\n        internal\n        override\n        returns \n        (\n            uint256[] memory\n        )\n    {\n        uint256 supplySize = _nonFungibleSupply.length;\n\n        require(supplySize >= quantity, \"not enough supply\");\n        require(_lastUsedSeed != _seed, \"seed not updated from last purchase\");\n\n        _lastUsedSeed = _seed;\n\n        uint256[] memory randomizedSupply = new uint256[](supplySize);\n\n        for (uint256 index = 0; index < supplySize; index++) {\n            uint256 tokenId = _nonFungibleSupply[index];\n            uint256 newIndex = uint256(\n                keccak256(abi.encode(tokenId, now, block.number, _seed))\n            ) % supplySize;\n            uint256 newNewIndex = newIndex;\n            while (randomizedSupply[newNewIndex] != 0) {\n                newNewIndex = (newNewIndex + 1) % supplySize;\n            }\n            newIndex = newNewIndex;\n            randomizedSupply[newIndex] = tokenId;\n        }\n\n        uint256[] memory selected = new uint256[](quantity);\n        for (uint256 index = 0; index < quantity; index++) {\n            selected[index] = randomizedSupply[index];\n        }\n\n        uint256[] memory newSupply = new uint256[](supplySize - quantity);\n        for (uint256 index = quantity; index < supplySize; index++) {\n            newSupply[index - quantity] = randomizedSupply[index];\n        }\n\n        _nonFungibleSupply = newSupply;\n\n        if (_nonFungibleSupply.length < _MIN_SUPPLY) {\n            emit RunningOutOfSupply(_nonFungibleSupply.length, _supplyOffset);\n        }\n\n        return selected;\n    }\n\n    function _purchaseForDelivery(PurchaseForVars memory purchaseForVars)\n        internal\n        override\n    {\n        require(purchaseForVars.recipient != address(0));\n        require(purchaseForVars.recipient != address(uint160(address(this))));\n\n        // populate batch with non-fungible mint information\n        for (\n            uint256 index = 0;\n            index < purchaseForVars.nonFungibleTokens.length;\n            index++\n        ) {\n            BeastQuest(_inventoryContract).mint(\n                purchaseForVars.recipient,\n                purchaseForVars.nonFungibleTokens[index]\n            );\n        }\n    }\n}\n",
  "sourcePath": "/Users/yuriy/pro5/BeastQuest/contracts/sale/BQSale.sol",
  "compiler": {
    "name": "solc",
    "version": "0.6.8+commit.0bbfe453.Emscripten.clang"
  },
  "schemaVersion": "3.2.0",
  "updatedAt": "2020-08-25T20:38:17.352Z",
  "devdoc": {
    "methods": {
      "createLot(uint256,uint256[],uint256,uint256)": {
        "details": "Creates a new Lot to add to the sale. There are NO guarantees about the uniqueness of the non-fungible token supply. Lot item price must be at least 0.00001 of the base denomination.",
        "params": {
          "fungibleAmount": "Initial fungible token amount to bundle with each NFT.",
          "lotId": "Id of the Lot to create.",
          "nonFungibleSupply": "Initial non-fungible token supply of the Lot.",
          "price": "Initial Lot item sale price, in payout currency tokens"
        }
      },
      "getPrice(address,uint256,uint256,address)": {
        "details": "Retrieves user purchase price information for the given quantity of Lot items.",
        "params": {
          "lotId": "Lot id of the items from which the purchase price information will be retrieved.",
          "quantity": "Quantity of Lot items from which the purchase price information will be retrieved.",
          "recipient": "The user for whom the price information is being retrieved for.",
          "tokenAddress": "Purchase currency token contract address."
        },
        "returns": {
          "minConversionRate": "Minimum conversion rate from purchase tokens to payout tokens.",
          "totalDiscounts": "Total discounts to apply to the total price, in purchase currency tokens.",
          "totalPrice": "Total price (excluding any discounts), in purchase currency tokens."
        }
      },
      "owner()": {
        "details": "Returns the address of the current owner."
      },
      "paused()": {
        "details": "Returns true if the contract is paused, and false otherwise."
      },
      "peekLotAvailableNonFungibleSupply(uint256,uint256)": {
        "details": "Returns the given number of next available non-fungible tokens for the specified Lot.If the given number is more than the next available non-fungible tokens, then the remaining available is returned.",
        "params": {
          "count": "Number of next available non-fungible tokens to peek.",
          "lotId": "Id of the Lot whose non-fungible supply to peek into."
        },
        "returns": {
          "_0": "The given number of next available non-fungible tokens for the specified Lot, otherwise the remaining available non-fungible tokens."
        }
      },
      "purchaseFor(address,uint256,uint256,address,uint256,uint256,string)": {
        "details": "Purchases a quantity of Lot items for the given Lot id.",
        "params": {
          "extData": "Additional string encoded custom data to pass through to the event.",
          "lotId": "Lot id of the items to purchase.",
          "maxTokenAmount": "Maximum amount of purchase tokens to spend for the purchase.",
          "minConversionRate": "Minimum conversion rate, from purchase tokens to payout tokens, to allow for the purchase to succeed.",
          "quantity": "Quantity of Lot items to purchase.",
          "recipient": "Destination account to receive the purchased Lot items.",
          "tokenAddress": "Purchase currency token contract address."
        }
      },
      "renounceOwnership()": {
        "details": "Leaves the contract without owner. It will not be possible to call `onlyOwner` functions anymore. Can only be called by the current owner.     * NOTE: Renouncing ownership will leave the contract without an owner, thereby removing any functionality that is only available to the owner."
      },
      "setFungibleTokenId(uint256)": {
        "details": "Sets the inventory token id of the fungible tokens bundled in a Lot item.",
        "params": {
          "fungibleTokenId": "Inventory token id of the fungible tokens to bundle in a Lot item."
        }
      },
      "setInventoryContract(address)": {
        "details": "Sets the inventory contract to use in the delivery of purchased Lot items.",
        "params": {
          "inventoryContract": "Address of the inventory contract to use."
        }
      },
      "setPayoutTokenAddress(address)": {
        "details": "Sets which token to use as the payout currency from the Lot sales.",
        "params": {
          "payoutTokenAddress": "Payout currency token contract address to use."
        }
      },
      "start()": {
        "details": "Starts the sale"
      },
      "transferOwnership(address)": {
        "details": "Transfers ownership of the contract to a new account (`newOwner`). Can only be called by the current owner."
      },
      "updateLotFungibleAmount(uint256,uint256)": {
        "details": "Updates the given Lot's fungible token amount bundled with each NFT.",
        "params": {
          "fungibleAmount": "Fungible token amount to update with.",
          "lotId": "Id of the Lot to update."
        }
      },
      "updateLotNonFungibleSupply(uint256,uint256[])": {
        "details": "Updates the given Lot's non-fungible token supply with additional NFTs. There are NO guarantees about the uniqueness of the non-fungible token supply.",
        "params": {
          "lotId": "Id of the Lot to update.",
          "nonFungibleTokens": "Non-fungible tokens to update with."
        }
      },
      "updateLotPrice(uint256,uint256)": {
        "details": "Updates the given Lot's item sale price.",
        "params": {
          "lotId": "Id of the Lot to update.",
          "price": "The new sale price, in payout currency tokens, to update with."
        }
      },
      "updateNonFungibleSupply(uint256[],uint256)": {
        "details": "Sets or updates the nonFungibleSupply for the sale.",
        "params": {
          "nonFungibleTokens": "supply to be updated."
        }
      }
    }
  },
  "userdoc": {
    "methods": {}
  }
}