{
  "contractName": "BQSale",
  "abi": [
    {
      "inputs": [
        {
          "internalType": "address payable",
          "name": "payoutWallet",
          "type": "address"
        },
        {
          "internalType": "uint256",
          "name": "fungibleTokenId",
          "type": "uint256"
        },
        {
          "internalType": "address",
          "name": "inventoryContract",
          "type": "address"
        }
      ],
      "stateMutability": "nonpayable",
      "type": "constructor"
    },
    {
      "anonymous": false,
      "inputs": [
        {
          "indexed": false,
          "internalType": "uint256",
          "name": "lotId",
          "type": "uint256"
        },
        {
          "indexed": false,
          "internalType": "uint256[]",
          "name": "nonFungibleTokens",
          "type": "uint256[]"
        },
        {
          "indexed": false,
          "internalType": "uint256",
          "name": "fungibleAmount",
          "type": "uint256"
        },
        {
          "indexed": false,
          "internalType": "uint256",
          "name": "price",
          "type": "uint256"
        }
      ],
      "name": "LotCreated",
      "type": "event"
    },
    {
      "anonymous": false,
      "inputs": [
        {
          "indexed": false,
          "internalType": "uint256",
          "name": "lotId",
          "type": "uint256"
        },
        {
          "indexed": false,
          "internalType": "uint256",
          "name": "fungibleAmount",
          "type": "uint256"
        }
      ],
      "name": "LotFungibleAmountUpdated",
      "type": "event"
    },
    {
      "anonymous": false,
      "inputs": [
        {
          "indexed": false,
          "internalType": "uint256",
          "name": "lotId",
          "type": "uint256"
        },
        {
          "indexed": false,
          "internalType": "uint256[]",
          "name": "nonFungibleTokens",
          "type": "uint256[]"
        }
      ],
      "name": "LotNonFungibleSupplyUpdated",
      "type": "event"
    },
    {
      "anonymous": false,
      "inputs": [
        {
          "indexed": false,
          "internalType": "uint256",
          "name": "lotId",
          "type": "uint256"
        },
        {
          "indexed": false,
          "internalType": "uint256",
          "name": "price",
          "type": "uint256"
        }
      ],
      "name": "LotPriceUpdated",
      "type": "event"
    },
    {
      "anonymous": false,
      "inputs": [
        {
          "indexed": true,
          "internalType": "address",
          "name": "previousOwner",
          "type": "address"
        },
        {
          "indexed": true,
          "internalType": "address",
          "name": "newOwner",
          "type": "address"
        }
      ],
      "name": "OwnershipTransferred",
      "type": "event"
    },
    {
      "anonymous": false,
      "inputs": [
        {
          "indexed": false,
          "internalType": "address",
          "name": "account",
          "type": "address"
        }
      ],
      "name": "Paused",
      "type": "event"
    },
    {
      "anonymous": false,
      "inputs": [
        {
          "indexed": false,
          "internalType": "address",
          "name": "payoutWallet_",
          "type": "address"
        }
      ],
      "name": "PayoutWalletSet",
      "type": "event"
    },
    {
      "anonymous": false,
      "inputs": [
        {
          "indexed": true,
          "internalType": "address",
          "name": "recipient",
          "type": "address"
        },
        {
          "indexed": false,
          "internalType": "address",
          "name": "operator",
          "type": "address"
        },
        {
          "indexed": true,
          "internalType": "uint256",
          "name": "lotId",
          "type": "uint256"
        },
        {
          "indexed": true,
          "internalType": "uint256",
          "name": "quantity",
          "type": "uint256"
        },
        {
          "indexed": false,
          "internalType": "uint256[]",
          "name": "nonFungibleTokens",
          "type": "uint256[]"
        },
        {
          "indexed": false,
          "internalType": "uint256",
          "name": "totalFungibleAmount",
          "type": "uint256"
        },
        {
          "indexed": false,
          "internalType": "uint256",
          "name": "totalPrice",
          "type": "uint256"
        },
        {
          "indexed": false,
          "internalType": "uint256",
          "name": "totalDiscounts",
          "type": "uint256"
        },
        {
          "indexed": false,
          "internalType": "address",
          "name": "tokenAddress",
          "type": "address"
        },
        {
          "indexed": false,
          "internalType": "uint256",
          "name": "tokensSent",
          "type": "uint256"
        },
        {
          "indexed": false,
          "internalType": "uint256",
          "name": "tokensReceived",
          "type": "uint256"
        },
        {
          "indexed": false,
          "internalType": "string",
          "name": "extData",
          "type": "string"
        }
      ],
      "name": "Purchased",
      "type": "event"
    },
    {
      "anonymous": false,
      "inputs": [
        {
          "indexed": false,
          "internalType": "uint256",
          "name": "currentSupply",
          "type": "uint256"
        }
      ],
      "name": "RunningOutOfSupply",
      "type": "event"
    },
    {
      "anonymous": false,
      "inputs": [
        {
          "indexed": false,
          "internalType": "address",
          "name": "account",
          "type": "address"
        }
      ],
      "name": "Unpaused",
      "type": "event"
    },
    {
      "inputs": [],
      "name": "ONE_ADDRESS",
      "outputs": [
        {
          "internalType": "contract IERC20",
          "name": "",
          "type": "address"
        }
      ],
      "stateMutability": "view",
      "type": "function"
    },
    {
      "inputs": [],
      "name": "_MIN_SUPPLY",
      "outputs": [
        {
          "internalType": "uint256",
          "name": "",
          "type": "uint256"
        }
      ],
      "stateMutability": "view",
      "type": "function"
    },
    {
      "inputs": [],
      "name": "_fungibleTokenId",
      "outputs": [
        {
          "internalType": "uint256",
          "name": "",
          "type": "uint256"
        }
      ],
      "stateMutability": "view",
      "type": "function"
    },
    {
      "inputs": [],
      "name": "_inventoryContract",
      "outputs": [
        {
          "internalType": "address",
          "name": "",
          "type": "address"
        }
      ],
      "stateMutability": "view",
      "type": "function"
    },
    {
      "inputs": [],
      "name": "_lastUsedSeed",
      "outputs": [
        {
          "internalType": "uint256",
          "name": "",
          "type": "uint256"
        }
      ],
      "stateMutability": "view",
      "type": "function"
    },
    {
      "inputs": [
        {
          "internalType": "uint256",
          "name": "",
          "type": "uint256"
        }
      ],
      "name": "_lots",
      "outputs": [
        {
          "internalType": "bool",
          "name": "exists",
          "type": "bool"
        },
        {
          "internalType": "uint256",
          "name": "fungibleAmount",
          "type": "uint256"
        },
        {
          "internalType": "uint256",
          "name": "price",
          "type": "uint256"
        },
        {
          "internalType": "uint256",
          "name": "numAvailable",
          "type": "uint256"
        }
      ],
      "stateMutability": "view",
      "type": "function"
    },
    {
      "inputs": [
        {
          "internalType": "uint256",
          "name": "",
          "type": "uint256"
        }
      ],
      "name": "_nonFungibleSupply",
      "outputs": [
        {
          "internalType": "uint256",
          "name": "",
          "type": "uint256"
        }
      ],
      "stateMutability": "view",
      "type": "function"
    },
    {
      "inputs": [],
      "name": "_payoutTokenAddress",
      "outputs": [
        {
          "internalType": "contract IERC20",
          "name": "",
          "type": "address"
        }
      ],
      "stateMutability": "view",
      "type": "function"
    },
    {
      "inputs": [],
      "name": "_seed",
      "outputs": [
        {
          "internalType": "uint256",
          "name": "",
          "type": "uint256"
        }
      ],
      "stateMutability": "view",
      "type": "function"
    },
    {
      "inputs": [],
      "name": "_startedAt",
      "outputs": [
        {
          "internalType": "uint256",
          "name": "",
          "type": "uint256"
        }
      ],
      "stateMutability": "view",
      "type": "function"
    },
    {
      "inputs": [
        {
          "internalType": "uint256",
          "name": "lotId",
          "type": "uint256"
        },
        {
          "internalType": "uint256[]",
          "name": "nonFungibleSupply",
          "type": "uint256[]"
        },
        {
          "internalType": "uint256",
          "name": "fungibleAmount",
          "type": "uint256"
        },
        {
          "internalType": "uint256",
          "name": "price",
          "type": "uint256"
        }
      ],
      "name": "createLot",
      "outputs": [],
      "stateMutability": "nonpayable",
      "type": "function"
    },
    {
      "inputs": [
        {
          "internalType": "address payable",
          "name": "recipient",
          "type": "address"
        },
        {
          "internalType": "uint256",
          "name": "lotId",
          "type": "uint256"
        },
        {
          "internalType": "uint256",
          "name": "quantity",
          "type": "uint256"
        },
        {
          "internalType": "contract IERC20",
          "name": "tokenAddress",
          "type": "address"
        }
      ],
      "name": "getPrice",
      "outputs": [
        {
          "internalType": "uint256",
          "name": "minConversionRate",
          "type": "uint256"
        },
        {
          "internalType": "uint256",
          "name": "totalPrice",
          "type": "uint256"
        },
        {
          "internalType": "uint256",
          "name": "totalDiscounts",
          "type": "uint256"
        }
      ],
      "stateMutability": "view",
      "type": "function"
    },
    {
      "inputs": [],
      "name": "owner",
      "outputs": [
        {
          "internalType": "address",
          "name": "",
          "type": "address"
        }
      ],
      "stateMutability": "view",
      "type": "function"
    },
    {
      "inputs": [],
      "name": "pause",
      "outputs": [],
      "stateMutability": "nonpayable",
      "type": "function"
    },
    {
      "inputs": [],
      "name": "paused",
      "outputs": [
        {
          "internalType": "bool",
          "name": "",
          "type": "bool"
        }
      ],
      "stateMutability": "view",
      "type": "function"
    },
    {
      "inputs": [],
      "name": "payoutTokenAddress",
      "outputs": [
        {
          "internalType": "contract IERC20",
          "name": "",
          "type": "address"
        }
      ],
      "stateMutability": "view",
      "type": "function"
    },
    {
      "inputs": [],
      "name": "payoutWallet",
      "outputs": [
        {
          "internalType": "address payable",
          "name": "",
          "type": "address"
        }
      ],
      "stateMutability": "view",
      "type": "function"
    },
    {
      "inputs": [
        {
          "internalType": "uint256",
          "name": "lotId",
          "type": "uint256"
        },
        {
          "internalType": "uint256",
          "name": "count",
          "type": "uint256"
        }
      ],
      "name": "peekLotAvailableNonFungibleSupply",
      "outputs": [
        {
          "internalType": "uint256[]",
          "name": "",
          "type": "uint256[]"
        }
      ],
      "stateMutability": "view",
      "type": "function"
    },
    {
      "inputs": [
        {
          "internalType": "address payable",
          "name": "recipient",
          "type": "address"
        },
        {
          "internalType": "uint256",
          "name": "lotId",
          "type": "uint256"
        },
        {
          "internalType": "uint256",
          "name": "quantity",
          "type": "uint256"
        },
        {
          "internalType": "contract IERC20",
          "name": "tokenAddress",
          "type": "address"
        },
        {
          "internalType": "uint256",
          "name": "maxTokenAmount",
          "type": "uint256"
        },
        {
          "internalType": "uint256",
          "name": "minConversionRate",
          "type": "uint256"
        },
        {
          "internalType": "string",
          "name": "extData",
          "type": "string"
        }
      ],
      "name": "purchaseFor",
      "outputs": [],
      "stateMutability": "payable",
      "type": "function"
    },
    {
      "inputs": [],
      "name": "renounceOwnership",
      "outputs": [],
      "stateMutability": "nonpayable",
      "type": "function"
    },
    {
      "inputs": [
        {
          "internalType": "uint256",
          "name": "fungibleTokenId",
          "type": "uint256"
        }
      ],
      "name": "setFungibleTokenId",
      "outputs": [],
      "stateMutability": "nonpayable",
      "type": "function"
    },
    {
      "inputs": [
        {
          "internalType": "address",
          "name": "inventoryContract",
          "type": "address"
        }
      ],
      "name": "setInventoryContract",
      "outputs": [],
      "stateMutability": "nonpayable",
      "type": "function"
    },
    {
      "inputs": [
        {
          "internalType": "contract IERC20",
          "name": "payoutTokenAddress",
          "type": "address"
        }
      ],
      "name": "setPayoutTokenAddress",
      "outputs": [],
      "stateMutability": "nonpayable",
      "type": "function"
    },
    {
      "inputs": [
        {
          "internalType": "address",
          "name": "payoutWallet_",
          "type": "address"
        }
      ],
      "name": "setPayoutWallet",
      "outputs": [],
      "stateMutability": "nonpayable",
      "type": "function"
    },
    {
      "inputs": [],
      "name": "start",
      "outputs": [],
      "stateMutability": "nonpayable",
      "type": "function"
    },
    {
      "inputs": [
        {
          "internalType": "address",
          "name": "newOwner",
          "type": "address"
        }
      ],
      "name": "transferOwnership",
      "outputs": [],
      "stateMutability": "nonpayable",
      "type": "function"
    },
    {
      "inputs": [],
      "name": "unpause",
      "outputs": [],
      "stateMutability": "nonpayable",
      "type": "function"
    },
    {
      "inputs": [
        {
          "internalType": "uint256",
          "name": "lotId",
          "type": "uint256"
        },
        {
          "internalType": "uint256",
          "name": "fungibleAmount",
          "type": "uint256"
        }
      ],
      "name": "updateLotFungibleAmount",
      "outputs": [],
      "stateMutability": "nonpayable",
      "type": "function"
    },
    {
      "inputs": [
        {
          "internalType": "uint256",
          "name": "lotId",
          "type": "uint256"
        },
        {
          "internalType": "uint256[]",
          "name": "nonFungibleTokens",
          "type": "uint256[]"
        }
      ],
      "name": "updateLotNonFungibleSupply",
      "outputs": [],
      "stateMutability": "nonpayable",
      "type": "function"
    },
    {
      "inputs": [
        {
          "internalType": "uint256",
          "name": "lotId",
          "type": "uint256"
        },
        {
          "internalType": "uint256",
          "name": "price",
          "type": "uint256"
        }
      ],
      "name": "updateLotPrice",
      "outputs": [],
      "stateMutability": "nonpayable",
      "type": "function"
    },
    {
      "inputs": [
        {
          "internalType": "uint256[]",
          "name": "nonFungibleTokens",
          "type": "uint256[]"
        }
      ],
      "name": "updateNonFungibleSupply",
      "outputs": [],
      "stateMutability": "nonpayable",
      "type": "function"
    },
    {
      "inputs": [
        {
          "internalType": "uint256",
          "name": "seed",
          "type": "uint256"
        }
      ],
      "name": "setRandomnessSeed",
      "outputs": [],
      "stateMutability": "nonpayable",
      "type": "function"
    }
  ],
  "bytecode": "0x60806040523480156200001157600080fd5b50604051620032dc380380620032dc833981810160405260608110156200003757600080fd5b50805160208201516040909201516000805460ff19168155919291839073eeeeeeeeeeeeeeeeeeeeeeeeeeeeeeeeeeeeeeee90849084908490620000836001600160e01b036200014616565b60008054610100600160a81b0319166101006001600160a01b038416908102919091178255604051929350917f8be0079c531659141344cd1fd0a4f28419497f9722a3daafe3b4186f6b6457e0908290a350620000e9816001600160e01b036200014a16565b50620000fd6001600160e01b03620002ee16565b62000111836001600160e01b036200036d16565b62000125826001600160e01b036200048116565b62000139816001600160e01b036200051916565b505050505050506200068d565b3390565b6200015d6001600160e01b036200014616565b60005461010090046001600160a01b03908116911614620001b4576040805162461bcd60e51b81526020600482018190526024820152600080516020620032bc833981519152604482015290519081900360640190fd5b6001600160a01b038116620001fb5760405162461bcd60e51b815260040180806020018281038252602e8152602001806200328e602e913960400191505060405180910390fd5b6001600160a01b038116301415620002455760405162461bcd60e51b81526004018080602001828103825260318152602001806200323a6031913960400191505060405180910390fd5b6001546001600160a01b0382811691161415620002945760405162461bcd60e51b81526004018080602001828103825260238152602001806200326b6023913960400191505060405180910390fd5b600180546001600160a01b0319166001600160a01b03838116919091179182905560408051929091168252517fdd880d24a789958a6398c99c2e54ce31bc10a638cbc42f7dd34285479ae0f855916020908290030190a150565b620003016001600160e01b036200014616565b60005461010090046001600160a01b0390811691161462000358576040805162461bcd60e51b81526020600482018190526024820152600080516020620032bc833981519152604482015290519081900360640190fd5b6200036b6001600160e01b03620005e316565b565b620003806001600160e01b036200014616565b60005461010090046001600160a01b03908116911614620003d7576040805162461bcd60e51b81526020600482018190526024820152600080516020620032bc833981519152604482015290519081900360640190fd5b60005460ff166200042f576040805162461bcd60e51b815260206004820152601460248201527f5061757361626c653a206e6f7420706175736564000000000000000000000000604482015290519081900360640190fd5b6001600160a01b0381166200044357600080fd5b6002546001600160a01b03828116911614156200045f57600080fd5b600280546001600160a01b0319166001600160a01b0392909216919091179055565b620004946001600160e01b036200014616565b60005461010090046001600160a01b03908116911614620004eb576040805162461bcd60e51b81526020600482018190526024820152600080516020620032bc833981519152604482015290519081900360640190fd5b60065415620004f957600080fd5b806200050457600080fd5b6003548114156200051457600080fd5b600355565b6200052c6001600160e01b036200014616565b60005461010090046001600160a01b0390811691161462000583576040805162461bcd60e51b81526020600482018190526024820152600080516020620032bc833981519152604482015290519081900360640190fd5b600654156200059157600080fd5b6001600160a01b038116620005a557600080fd5b6004546001600160a01b0382811691161415620005c157600080fd5b600480546001600160a01b0319166001600160a01b0392909216919091179055565b60005460ff16156200062f576040805162461bcd60e51b815260206004820152601060248201526f14185d5cd8589b194e881c185d5cd95960821b604482015290519081900360640190fd5b6000805460ff191660011790557f62e78cea01bee320cd4e420270b5ea74000d11b0c9f74754ebdbfc544b05a258620006706001600160e01b036200014616565b604080516001600160a01b039092168252519081900360200190a1565b612b9d806200069d6000396000f3fe6080604052600436106101e35760003560e01c80636773e69611610102578063a871431411610095578063dcc1a4da11610064578063dcc1a4da146104df578063e7fe75a714610855578063f2fde38b1461086a578063f891add11461089d576101e3565b8063a8714314146106e8578063be9a655514610768578063cbcd26f01461077d578063d4dd68da146107a7576101e3565b80638488bb4e116100d15780638488bb4e146105ef57806386e2106a146106045780638da5cb5b1461061957806394ac5d4d1461062e576101e3565b80636773e696146105105780636b8f9c4314610592578063715018a6146105c55780638456cb59146105da576101e3565b8063530023c51161017a578063570f903e11610149578063570f903e1461048c5780635a34d356146104a15780635c975abb146104b65780635cc04838146104df576101e3565b8063530023c51461034157806353448d7d146103a6578063545370b2146104445780635607963714610459576101e3565b8063261063db116101b6578063261063db146102c357806328af219e146102ed5780632d387274146103025780633f4ba83a1461032c576101e3565b806317870a9f146101e8578063205fe3391461021a578063211d4ee91461026c57806321b09b6d14610293575b600080fd5b3480156101f457600080fd5b506102186004803603604081101561020b57600080fd5b50803590602001356108d0565b005b34801561022657600080fd5b506102446004803603602081101561023d57600080fd5b5035610a08565b6040805194151585526020850193909352838301919091526060830152519081900360800190f35b34801561027857600080fd5b50610281610a33565b60408051918252519081900360200190f35b34801561029f57600080fd5b50610218600480360360408110156102b657600080fd5b5080359060200135610a39565b3480156102cf57600080fd5b50610281600480360360208110156102e657600080fd5b5035610b71565b3480156102f957600080fd5b50610281610b8f565b34801561030e57600080fd5b506102186004803603602081101561032557600080fd5b5035610b95565b34801561033857600080fd5b50610218610bf7565b34801561034d57600080fd5b506103886004803603608081101561036457600080fd5b506001600160a01b0381358116916020810135916040820135916060013516610c5e565b60408051938452602084019290925282820152519081900360600190f35b610218600480360360e08110156103bc57600080fd5b6001600160a01b0382358116926020810135926040820135926060830135169160808101359160a0820135919081019060e0810160c0820135600160201b81111561040657600080fd5b82018360208201111561041857600080fd5b803590602001918460018302840111600160201b8311171561043957600080fd5b509092509050610d63565b34801561045057600080fd5b50610281610f66565b34801561046557600080fd5b506102186004803603602081101561047c57600080fd5b50356001600160a01b0316610f6c565b34801561049857600080fd5b50610281611026565b3480156104ad57600080fd5b5061028161102b565b3480156104c257600080fd5b506104cb611031565b604080519115158252519081900360200190f35b3480156104eb57600080fd5b506104f461103b565b604080516001600160a01b039092168252519081900360200190f35b34801561051c57600080fd5b506102186004803603604081101561053357600080fd5b81359190810190604081016020820135600160201b81111561055457600080fd5b82018360208201111561056657600080fd5b803590602001918460208302840111600160201b8311171561058757600080fd5b509092509050611053565b34801561059e57600080fd5b50610218600480360360208110156105b557600080fd5b50356001600160a01b0316611369565b3480156105d157600080fd5b506102186114fa565b3480156105e657600080fd5b506102186115a6565b3480156105fb57600080fd5b506104f461160b565b34801561061057600080fd5b506104f461161a565b34801561062557600080fd5b506104f4611629565b34801561063a57600080fd5b506102186004803603608081101561065157600080fd5b81359190810190604081016020820135600160201b81111561067257600080fd5b82018360208201111561068457600080fd5b803590602001918460208302840111600160201b831117156106a557600080fd5b919080806020026020016040519081016040528093929190818152602001838360200280828437600092019190915250929550508235935050506020013561163d565b3480156106f457600080fd5b506107186004803603604081101561070b57600080fd5b50803590602001356117d2565b60408051602080825283518183015283519192839290830191858101910280838360005b8381101561075457818101518382015260200161073c565b505050509050019250505060405180910390f35b34801561077457600080fd5b50610218611962565b34801561078957600080fd5b50610218600480360360208110156107a057600080fd5b50356119d8565b3480156107b357600080fd5b50610218600480360360208110156107ca57600080fd5b810190602081018135600160201b8111156107e457600080fd5b8201836020820111156107f657600080fd5b803590602001918460208302840111600160201b8311171561081757600080fd5b919080806020026020016040519081016040528093929190818152602001838360200280828437600092019190915250929550611a60945050505050565b34801561086157600080fd5b506104f4611be3565b34801561087657600080fd5b506102186004803603602081101561088d57600080fd5b50356001600160a01b0316611bf2565b3480156108a957600080fd5b50610218600480360360208110156108c057600080fd5b50356001600160a01b0316611cfa565b6108d8611df5565b60005461010090046001600160a01b0390811691161461092d576040805162461bcd60e51b81526020600482018190526024820152600080516020612b0f833981519152604482015290519081900360640190fd5b60005460ff1661097b576040805162461bcd60e51b815260206004820152601460248201527314185d5cd8589b194e881b9bdd081c185d5cd95960621b604482015290519081900360640190fd5b60008281526005602052604090205460ff1661099657600080fd5b6000828152600560205260409020600301548114156109b457600080fd5b600082815260056020908152604091829020600301839055815184815290810183905281517f308309ae1e42f6780909fc0fca3307fb3968ad48c097b225a6e7c83bc67a49d8929181900390910190a15050565b600560205260009081526040902080546002820154600383015460049093015460ff90921692909184565b60095481565b610a41611df5565b60005461010090046001600160a01b03908116911614610a96576040805162461bcd60e51b81526020600482018190526024820152600080516020612b0f833981519152604482015290519081900360640190fd5b60005460ff16610ae4576040805162461bcd60e51b815260206004820152601460248201527314185d5cd8589b194e881b9bdd081c185d5cd95960621b604482015290519081900360640190fd5b60008281526005602052604090205460ff16610aff57600080fd5b600082815260056020526040902060020154811415610b1d57600080fd5b600082815260056020908152604091829020600201839055815184815290810183905281517f3224a1e230cbcef28c03d750e29a0a2b674de25bdf58594803cc7e54b797119e929181900390910190a15050565b60078181548110610b7e57fe5b600091825260209091200154905081565b60035481565b610b9d611df5565b60005461010090046001600160a01b03908116911614610bf2576040805162461bcd60e51b81526020600482018190526024820152600080516020612b0f833981519152604482015290519081900360640190fd5b600855565b610bff611df5565b60005461010090046001600160a01b03908116911614610c54576040805162461bcd60e51b81526020600482018190526024820152600080516020612b0f833981519152604482015290519081900360640190fd5b610c5c611df9565b565b6000806000610c6b6128c8565b600087815260056020908152604091829020825160a081018452815460ff161515815260018201805485518186028101860190965280865291949293858101939290830182828015610cdc57602002820191906000526020600020905b815481526020019060010190808311610cc8575b50505050508152602001600282015481526020016003820154815260200160048201548152505090508060000151610d1357600080fd5b6001600160a01b038516610d2657600080fd5b610d31888288611e97565b60025491945092506001600160a01b0386811691161415610d5857670de0b6b3a764000093505b509450945094915050565b60005460ff1615610dae576040805162461bcd60e51b815260206004820152601060248201526f14185d5cd8589b194e881c185d5cd95960821b604482015290519081900360640190fd5b600654610dba57600080fd5b6001600160a01b038816610dcd57600080fd5b6001600160a01b038816301415610de357600080fd5b60008611610df057600080fd5b6001600160a01b038516610e0357600080fd5b610e0b6128f9565b6001600160a01b03808a16825260208083018a905260408084018a905291881660608401526080830187905260a083018690528151601f85018290048202810182019092528382528490849081908401838280828437600092018290525060c086019490945250503360e08401525088815260056020908152604091829020825160a081018452815460ff161515815260018201805485518186028101860190965280865291949293858101939290830182828015610ee957602002820191906000526020600020905b815481526020019060010190808311610ed5575b50505091835250506002820154602082015260038201546040820152600490910154606090910152610100820181905251610f2357600080fd5b610f2c87611ebd565b61012082015261010081015160400151610f4c908863ffffffff6121d616565b610140820152610f5b81612236565b505050505050505050565b60065481565b610f74611df5565b60005461010090046001600160a01b03908116911614610fc9576040805162461bcd60e51b81526020600482018190526024820152600080516020612b0f833981519152604482015290519081900360640190fd5b60065415610fd657600080fd5b6001600160a01b038116610fe957600080fd5b6004546001600160a01b038281169116141561100457600080fd5b600480546001600160a01b0319166001600160a01b0392909216919091179055565b603281565b60085481565b60005460ff165b90565b73eeeeeeeeeeeeeeeeeeeeeeeeeeeeeeeeeeeeeeee81565b61105b611df5565b60005461010090046001600160a01b039081169116146110b0576040805162461bcd60e51b81526020600482018190526024820152600080516020612b0f833981519152604482015290519081900360640190fd5b600654156110bd57600080fd5b806110c757600080fd5b6110cf6128c8565b600084815260056020908152604091829020825160a081018452815460ff16151581526001820180548551818602810186019096528086529194929385810193929083018282801561114057602002820191906000526020600020905b81548152602001906001019080831161112c575b5050505050815260200160028201548152602001600382015481526020016004820154815250509050806000015161117757600080fd5b602081015151600090611190908463ffffffff61227516565b905060608167ffffffffffffffff811180156111ab57600080fd5b506040519080825280602002602001820160405280156111d5578160200160208202803683370190505b50905060005b83602001515181101561121f57836020015181815181106111f857fe5b602002602001015182828151811061120c57fe5b60209081029190910101526001016111db565b5060005b8481101561127a5760006112458560200151518361227590919063ffffffff16565b905086868381811061125357fe5b9050602002013583828151811061126657fe5b602090810291909101015250600101611223565b50602083018190526080830151611297908563ffffffff61227516565b608084015260008681526005602090815260409091208451815460ff191690151517815581850151805186936112d4926001850192910190612990565b506040820151816002015560608201518160030155608082015181600401559050507ffe86f1bccfeda18935f449237d256da18cdba398ce10b99c728fbf50558ca70486868660405180848152602001806020018281038252848482818152602001925060200280828437600083820152604051601f909101601f1916909201829003965090945050505050a1505050505050565b611371611df5565b60005461010090046001600160a01b039081169116146113c6576040805162461bcd60e51b81526020600482018190526024820152600080516020612b0f833981519152604482015290519081900360640190fd5b6001600160a01b03811661140b5760405162461bcd60e51b815260040180806020018281038252602e815260200180612ae1602e913960400191505060405180910390fd5b6001600160a01b0381163014156114535760405162461bcd60e51b81526004018080602001828103825260318152602001806129f66031913960400191505060405180910390fd5b6001546001600160a01b03828116911614156114a05760405162461bcd60e51b8152600401808060200182810382526023815260200180612a7a6023913960400191505060405180910390fd5b600180546001600160a01b0319166001600160a01b03838116919091179182905560408051929091168252517fdd880d24a789958a6398c99c2e54ce31bc10a638cbc42f7dd34285479ae0f855916020908290030190a150565b611502611df5565b60005461010090046001600160a01b03908116911614611557576040805162461bcd60e51b81526020600482018190526024820152600080516020612b0f833981519152604482015290519081900360640190fd5b600080546040516101009091046001600160a01b0316907f8be0079c531659141344cd1fd0a4f28419497f9722a3daafe3b4186f6b6457e0908390a360008054610100600160a81b0319169055565b6115ae611df5565b60005461010090046001600160a01b03908116911614611603576040805162461bcd60e51b81526020600482018190526024820152600080516020612b0f833981519152604482015290519081900360640190fd5b610c5c6122cf565b6001546001600160a01b031681565b6004546001600160a01b031681565b60005461010090046001600160a01b031690565b611645611df5565b60005461010090046001600160a01b0390811691161461169a576040805162461bcd60e51b81526020600482018190526024820152600080516020612b0f833981519152604482015290519081900360640190fd5b600654156116a757600080fd5b60008481526005602052604090205460ff16156116c357600080fd5b6116cb6128c8565b6001808252602080830186815260408085018790526060850186905287516080860152600089815260058452208451815460ff1916901515178155905180518594929361171c938501920190612990565b506040820151816002015560608201518160030155608082015181600401559050507f092e0fdb6c3d4facae6301fcf8ca0a2a72704004716d07d6399a4b5d6d5697db858585856040518085815260200180602001848152602001838152602001828103825285818151815260200191508051906020019060200280838360005b838110156117b557818101518382015260200161179d565b505050509050019550505050505060405180910390a15050505050565b60606117dc6128c8565b600084815260056020908152604091829020825160a081018452815460ff16151581526001820180548551818602810186019096528086529194929385810193929083018282801561184d57602002820191906000526020600020905b815481526020019060010190808311611839575b5050505050815260200160028201548152602001600382015481526020016004820154815250509050806000015161188457600080fd5b806080015183111561189857806080015192505b60608367ffffffffffffffff811180156118b157600080fd5b506040519080825280602002602001820160405280156118db578160200160208202803683370190505b50905060006118fc836080015184602001515161235090919063ffffffff16565b905060005b8581101561195557600061191b838363ffffffff61227516565b90508460200151818151811061192d57fe5b602002602001015184838151811061194157fe5b602090810291909101015250600101611901565b5090925050505b92915050565b61196a611df5565b60005461010090046001600160a01b039081169116146119bf576040805162461bcd60e51b81526020600482018190526024820152600080516020612b0f833981519152604482015290519081900360640190fd5b600654156119cc57600080fd5b42600655610c5c610bf7565b6119e0611df5565b60005461010090046001600160a01b03908116911614611a35576040805162461bcd60e51b81526020600482018190526024820152600080516020612b0f833981519152604482015290519081900360640190fd5b60065415611a4257600080fd5b80611a4c57600080fd5b600354811415611a5b57600080fd5b600355565b611a68611df5565b60005461010090046001600160a01b03908116911614611abd576040805162461bcd60e51b81526020600482018190526024820152600080516020612b0f833981519152604482015290519081900360640190fd5b6000815111611acb57600080fd5b8051600754600091611ae3919063ffffffff61227516565b905060608167ffffffffffffffff81118015611afe57600080fd5b50604051908082528060200260200182016040528015611b28578160200160208202803683370190505b50905060005b600754811015611b6f5760078181548110611b4557fe5b9060005260206000200154828281518110611b5c57fe5b6020908102919091010152600101611b2e565b5060005b8351811015611bc957600754600090611b9390839063ffffffff61227516565b9050848281518110611ba157fe5b6020026020010151838281518110611bb557fe5b602090810291909101015250600101611b73565b508051611bdd906007906020840190612990565b50505050565b6002546001600160a01b031681565b611bfa611df5565b60005461010090046001600160a01b03908116911614611c4f576040805162461bcd60e51b81526020600482018190526024820152600080516020612b0f833981519152604482015290519081900360640190fd5b6001600160a01b038116611c945760405162461bcd60e51b8152600401808060200182810382526026815260200180612a276026913960400191505060405180910390fd5b600080546040516001600160a01b038085169361010090930416917f8be0079c531659141344cd1fd0a4f28419497f9722a3daafe3b4186f6b6457e091a3600080546001600160a01b0390921661010002610100600160a81b0319909216919091179055565b611d02611df5565b60005461010090046001600160a01b03908116911614611d57576040805162461bcd60e51b81526020600482018190526024820152600080516020612b0f833981519152604482015290519081900360640190fd5b60005460ff16611da5576040805162461bcd60e51b815260206004820152601460248201527314185d5cd8589b194e881b9bdd081c185d5cd95960621b604482015290519081900360640190fd5b6001600160a01b038116611db857600080fd5b6002546001600160a01b0382811691161415611dd357600080fd5b600280546001600160a01b0319166001600160a01b0392909216919091179055565b3390565b60005460ff16611e47576040805162461bcd60e51b815260206004820152601460248201527314185d5cd8589b194e881b9bdd081c185d5cd95960621b604482015290519081900360640190fd5b6000805460ff191690557f5db9ee0a495bf2e6ff9c91a7834c1ba4fdd244a5e8aa4e537bd38aeae4b073aa611e7a611df5565b604080516001600160a01b039092168252519081900360200190a1565b600080611eb18385606001516121d690919063ffffffff16565b95600095509350505050565b60075460609082811015611f0c576040805162461bcd60e51b81526020600482015260116024820152706e6f7420656e6f75676820737570706c7960781b604482015290519081900360640190fd5b6008546009541415611f4f5760405162461bcd60e51b8152600401808060200182810382526023815260200180612a9d6023913960400191505060405180910390fd5b60085460095560608167ffffffffffffffff81118015611f6e57600080fd5b50604051908082528060200260200182016040528015611f98578160200160208202803683370190505b50905060005b8281101561206a57600060078281548110611fb557fe5b90600052602060002001549050600084824243600854604051602001808581526020018481526020018381526020018281526020019450505050506040516020818303038152906040528051906020012060001c8161201057fe5b069050805b84818151811061202157fe5b60200260200101516000146120445785816001018161203c57fe5b069050612015565b8091508285838151811061205457fe5b6020908102919091010152505050600101611f9e565b5060608467ffffffffffffffff8111801561208457600080fd5b506040519080825280602002602001820160405280156120ae578160200160208202803683370190505b50905060005b858110156120ef578281815181106120c857fe5b60200260200101518282815181106120dc57fe5b60209081029190910101526001016120b4565b50606085840367ffffffffffffffff8111801561210b57600080fd5b50604051908082528060200260200182016040528015612135578160200160208202803683370190505b509050855b848110156121775783818151811061214e57fe5b6020026020010151828883038151811061216457fe5b602090810291909101015260010161213a565b50805161218b906007906020840190612990565b50600754603211156121cd5760075460408051918252517f45d2e672d79d0b90708448473429b3cbb987d69a2b74263ee861e56e1f81ef069181900360200190a15b50949350505050565b6000826121e55750600061195c565b828202828482816121f257fe5b041461222f5760405162461bcd60e51b8152600401808060200182810382526021815260200180612ac06021913960400191505060405180910390fd5b9392505050565b61223f81612392565b610180830152610160820152612254816123c4565b6101c08301526101a0820152612269816125cb565b612272816126b1565b50565b60008282018381101561222f576040805162461bcd60e51b815260206004820152601b60248201527f536166654d6174683a206164646974696f6e206f766572666c6f770000000000604482015290519081900360640190fd5b60005460ff161561231a576040805162461bcd60e51b815260206004820152601060248201526f14185d5cd8589b194e881c185d5cd95960821b604482015290519081900360640190fd5b6000805460ff191660011790557f62e78cea01bee320cd4e420270b5ea74000d11b0c9f74754ebdbfc544b05a258611e7a611df5565b600061222f83836040518060400160405280601e81526020017f536166654d6174683a207375627472616374696f6e206f766572666c6f770000815250612831565b6000806123ad83600001518461010001518560400151611e97565b9092509050818111156123bf57600080fd5b915091565b60008060006123e684610180015185610160015161235090919063ffffffff16565b90506123f6818560a001516121d6565b6002549091506001600160a01b031673eeeeeeeeeeeeeeeeeeeeeeeeeeeeeeeeeeeeeeee14156124f9578034101561245f5760405162461bcd60e51b815260040180806020018281038252602d815260200180612a4d602d913960400191505060405180910390fd5b6001546040516001600160a01b039091169082156108fc029083906000818181858888f19350505050158015612499573d6000803e3d6000fd5b5060006124ac348363ffffffff61235016565b905080156124f3578460e001516001600160a01b03166108fc829081150290604051600060405180830381858888f193505050501580156124f1573d6000803e3d6000fd5b505b506125c5565b60025460e0850151600154604080516323b872dd60e01b81526001600160a01b0393841660048201529183166024830152604482018590525191909216916323b872dd9160648083019260209291908290030181600087803b15801561255e57600080fd5b505af1158015612572573d6000803e3d6000fd5b505050506040513d602081101561258857600080fd5b50516125c55760405162461bcd60e51b8152600401808060200182810382526039815260200180612b2f6039913960400191505060405180910390fd5b50915091565b80516001600160a01b03166125df57600080fd5b80516001600160a01b03163014156125f657600080fd5b60005b816101200151518110156126ad57600454825161012084015180516001600160a01b03909316926340c10f199291908590811061263257fe5b60200260200101516040518363ffffffff1660e01b815260040180836001600160a01b03166001600160a01b0316815260200182815260200192505050600060405180830381600087803b15801561268957600080fd5b505af115801561269d573d6000803e3d6000fd5b5050600190920191506125f99050565b5050565b8060400151816020015182600001516001600160a01b03167ff40d091840b85db3e39f3dd62b7171c26fd7777b9c7099b76094db4dd9689a6b8460e0015185610120015186610140015187610160015188610180015189606001518a6101a001518b6101c001518c60c00151604051808a6001600160a01b03166001600160a01b0316815260200180602001898152602001888152602001878152602001866001600160a01b03166001600160a01b031681526020018581526020018481526020018060200183810383528b818151815260200191508051906020019060200280838360005b838110156127af578181015183820152602001612797565b50505050905001838103825284818151815260200191508051906020019080838360005b838110156127eb5781810151838201526020016127d3565b50505050905090810190601f1680156128185780820380516001836020036101000a031916815260200191505b509b50505050505050505050505060405180910390a450565b600081848411156128c05760405162461bcd60e51b81526004018080602001828103825283818151815260200191508051906020019080838360005b8381101561288557818101518382015260200161286d565b50505050905090810190601f1680156128b25780820380516001836020036101000a031916815260200191505b509250505060405180910390fd5b505050900390565b6040518060a00160405280600015158152602001606081526020016000815260200160008152602001600081525090565b604051806101e0016040528060006001600160a01b03168152602001600081526020016000815260200160006001600160a01b0316815260200160008152602001600081526020016060815260200160006001600160a01b031681526020016129606128c8565b81526020016060815260200160008152602001600081526020016000815260200160008152602001600081525090565b8280548282559060005260206000209081019282156129cb579160200282015b828111156129cb5782518255916020019190600101906129b0565b506129d79291506129db565b5090565b61103891905b808211156129d757600081556001016129e156fe546865207061796f75742077616c6c6574206d757374206e6f742062652074686520636f6e747261637420697473656c664f776e61626c653a206e6577206f776e657220697320746865207a65726f20616464726573734669786564537570706c794c6f7453616c653a20696e73756666696369656e74204f4e452070726f7669646564546865207061796f75742077616c6c6574206d75737420626520646966666572656e7473656564206e6f7420757064617465642066726f6d206c617374207075726368617365536166654d6174683a206d756c7469706c69636174696f6e206f766572666c6f77546865207061796f75742077616c6c6574206d757374206e6f7420626520746865207a65726f20616464726573734f776e61626c653a2063616c6c6572206973206e6f7420746865206f776e65724669786564537570706c794c6f7453616c653a206661696c75726520696e207472616e7366657272696e67204552433230207061796d656e74a2646970667358221220034c19abb8e87d6a9426415e6bcfded54220d25dbfbf92afb46880210479e64264736f6c63430006080033546865207061796f75742077616c6c6574206d757374206e6f742062652074686520636f6e747261637420697473656c66546865207061796f75742077616c6c6574206d75737420626520646966666572656e74546865207061796f75742077616c6c6574206d757374206e6f7420626520746865207a65726f20616464726573734f776e61626c653a2063616c6c6572206973206e6f7420746865206f776e6572",
  "immutableReferences": {},
  "source": "pragma solidity 0.6.8;\n\nimport \"./FixedSupplyLotSale.sol\";\nimport \"../token/BeastQuest.sol\";\n\ncontract BQSale is FixedSupplyLotSale {\n    uint256[] public _nonFungibleSupply;\n    uint256 public _seed;\n    uint256 public _lastUsedSeed;\n    uint256 public constant _MIN_SUPPLY = 50;\n\n    event RunningOutOfSupply(uint256 currentSupply);\n\n    IERC20 public constant payoutTokenAddress = IERC20(0x00eeeeeeeeeeeeeeeeeeeeeeeeeeeeeeeeeeeeeeee);\n\n    constructor(\n        address payable payoutWallet,\n        // IERC20 payoutTokenAddress,\n        uint256 fungibleTokenId,\n        address inventoryContract\n    )\n        public\n        FixedSupplyLotSale(\n            payoutWallet,\n            payoutTokenAddress,\n            fungibleTokenId,\n            inventoryContract\n        )\n    {}\n\n    /**\n     * @dev Sets or updates the nonFungibleSupply for the sale.\n     * @param nonFungibleTokens supply to be updated.\n     */\n    function updateNonFungibleSupply(uint256[] memory nonFungibleTokens)\n        public\n        onlyOwner\n    // whenNotStarted\n    {\n        require(nonFungibleTokens.length > 0);\n\n        uint256 newSupplySize = _nonFungibleSupply.length.add(nonFungibleTokens.length);\n        uint256[] memory newNonFungibleSupply = new uint256[](newSupplySize);\n\n        for (uint256 index = 0; index < _nonFungibleSupply.length; index++) {\n            newNonFungibleSupply[index] = _nonFungibleSupply[index];\n        }\n\n        for (uint256 index = 0; index < nonFungibleTokens.length; index++) {\n            uint256 offset = index.add(_nonFungibleSupply.length);\n            newNonFungibleSupply[offset] = nonFungibleTokens[index];\n        }\n\n        _nonFungibleSupply = newNonFungibleSupply;\n    }\n\n    function setRandomnessSeed(uint256 seed) public onlyOwner // whenNotStarted\n    {\n        _seed = seed;\n    }\n\n    function _randomlySelectAndUpdate(uint256 quantity)\n        internal\n        override\n        returns \n        (\n            uint256[] memory\n        )\n    {\n        uint256 supplySize = _nonFungibleSupply.length;\n\n        require(supplySize >= quantity, \"not enough supply\");\n        require(_lastUsedSeed != _seed, \"seed not updated from last purchase\");\n\n        _lastUsedSeed = _seed;\n\n        uint256[] memory randomizedSupply = new uint256[](supplySize);\n\n        for (uint256 index = 0; index < supplySize; index++) {\n            uint256 tokenId = _nonFungibleSupply[index];\n            uint256 newIndex = uint256(\n                keccak256(abi.encode(tokenId, now, block.number, _seed))\n            ) % supplySize;\n            uint256 newNewIndex = newIndex;\n            while (randomizedSupply[newNewIndex] != 0) {\n                newNewIndex = (newNewIndex + 1) % supplySize;\n            }\n            newIndex = newNewIndex;\n            randomizedSupply[newIndex] = tokenId;\n        }\n\n        uint256[] memory selected = new uint256[](quantity);\n        for (uint256 index = 0; index < quantity; index++) {\n            selected[index] = randomizedSupply[index];\n        }\n\n        uint256[] memory newSupply = new uint256[](supplySize - quantity);\n        for (uint256 index = quantity; index < supplySize; index++) {\n            newSupply[index - quantity] = randomizedSupply[index];\n        }\n\n        _nonFungibleSupply = newSupply;\n\n        if (_nonFungibleSupply.length < _MIN_SUPPLY) {\n            emit RunningOutOfSupply(_nonFungibleSupply.length);\n        }\n\n        return selected;\n    }\n\n    function _purchaseForDelivery(PurchaseForVars memory purchaseForVars)\n        internal\n        override\n    {\n        require(purchaseForVars.recipient != address(0));\n        require(purchaseForVars.recipient != address(uint160(address(this))));\n\n        // populate batch with non-fungible mint information\n        for (\n            uint256 index = 0;\n            index < purchaseForVars.nonFungibleTokens.length;\n            index++\n        ) {\n            BeastQuest(_inventoryContract).mint(\n                purchaseForVars.recipient,\n                purchaseForVars.nonFungibleTokens[index]\n            );\n        }\n    }\n}\n",
  "sourcePath": "/Users/yuriy/pro5/BeastQuest/contracts/sale/BQSale.sol",
  "compiler": {
    "name": "solc",
    "version": "0.6.8+commit.0bbfe453.Emscripten.clang"
  },
  "schemaVersion": "3.2.0",
  "updatedAt": "2020-08-16T16:10:07.178Z",
  "devdoc": {
    "methods": {
      "createLot(uint256,uint256[],uint256,uint256)": {
        "details": "Creates a new Lot to add to the sale. There are NO guarantees about the uniqueness of the non-fungible token supply. Lot item price must be at least 0.00001 of the base denomination.",
        "params": {
          "fungibleAmount": "Initial fungible token amount to bundle with each NFT.",
          "lotId": "Id of the Lot to create.",
          "nonFungibleSupply": "Initial non-fungible token supply of the Lot.",
          "price": "Initial Lot item sale price, in payout currency tokens"
        }
      },
      "getPrice(address,uint256,uint256,address)": {
        "details": "Retrieves user purchase price information for the given quantity of Lot items.",
        "params": {
          "lotId": "Lot id of the items from which the purchase price information will be retrieved.",
          "quantity": "Quantity of Lot items from which the purchase price information will be retrieved.",
          "recipient": "The user for whom the price information is being retrieved for.",
          "tokenAddress": "Purchase currency token contract address."
        },
        "returns": {
          "minConversionRate": "Minimum conversion rate from purchase tokens to payout tokens.",
          "totalDiscounts": "Total discounts to apply to the total price, in purchase currency tokens.",
          "totalPrice": "Total price (excluding any discounts), in purchase currency tokens."
        }
      },
      "owner()": {
        "details": "Returns the address of the current owner."
      },
      "paused()": {
        "details": "Returns true if the contract is paused, and false otherwise."
      },
      "peekLotAvailableNonFungibleSupply(uint256,uint256)": {
        "details": "Returns the given number of next available non-fungible tokens for the specified Lot.If the given number is more than the next available non-fungible tokens, then the remaining available is returned.",
        "params": {
          "count": "Number of next available non-fungible tokens to peek.",
          "lotId": "Id of the Lot whose non-fungible supply to peek into."
        },
        "returns": {
          "_0": "The given number of next available non-fungible tokens for the specified Lot, otherwise the remaining available non-fungible tokens."
        }
      },
      "purchaseFor(address,uint256,uint256,address,uint256,uint256,string)": {
        "details": "Purchases a quantity of Lot items for the given Lot id.",
        "params": {
          "extData": "Additional string encoded custom data to pass through to the event.",
          "lotId": "Lot id of the items to purchase.",
          "maxTokenAmount": "Maximum amount of purchase tokens to spend for the purchase.",
          "minConversionRate": "Minimum conversion rate, from purchase tokens to payout tokens, to allow for the purchase to succeed.",
          "quantity": "Quantity of Lot items to purchase.",
          "recipient": "Destination account to receive the purchased Lot items.",
          "tokenAddress": "Purchase currency token contract address."
        }
      },
      "renounceOwnership()": {
        "details": "Leaves the contract without owner. It will not be possible to call `onlyOwner` functions anymore. Can only be called by the current owner.     * NOTE: Renouncing ownership will leave the contract without an owner, thereby removing any functionality that is only available to the owner."
      },
      "setFungibleTokenId(uint256)": {
        "details": "Sets the inventory token id of the fungible tokens bundled in a Lot item.",
        "params": {
          "fungibleTokenId": "Inventory token id of the fungible tokens to bundle in a Lot item."
        }
      },
      "setInventoryContract(address)": {
        "details": "Sets the inventory contract to use in the delivery of purchased Lot items.",
        "params": {
          "inventoryContract": "Address of the inventory contract to use."
        }
      },
      "setPayoutTokenAddress(address)": {
        "details": "Sets which token to use as the payout currency from the Lot sales.",
        "params": {
          "payoutTokenAddress": "Payout currency token contract address to use."
        }
      },
      "start()": {
        "details": "Starts the sale"
      },
      "transferOwnership(address)": {
        "details": "Transfers ownership of the contract to a new account (`newOwner`). Can only be called by the current owner."
      },
      "updateLotFungibleAmount(uint256,uint256)": {
        "details": "Updates the given Lot's fungible token amount bundled with each NFT.",
        "params": {
          "fungibleAmount": "Fungible token amount to update with.",
          "lotId": "Id of the Lot to update."
        }
      },
      "updateLotNonFungibleSupply(uint256,uint256[])": {
        "details": "Updates the given Lot's non-fungible token supply with additional NFTs. There are NO guarantees about the uniqueness of the non-fungible token supply.",
        "params": {
          "lotId": "Id of the Lot to update.",
          "nonFungibleTokens": "Non-fungible tokens to update with."
        }
      },
      "updateLotPrice(uint256,uint256)": {
        "details": "Updates the given Lot's item sale price.",
        "params": {
          "lotId": "Id of the Lot to update.",
          "price": "The new sale price, in payout currency tokens, to update with."
        }
      },
      "updateNonFungibleSupply(uint256[])": {
        "details": "Sets or updates the nonFungibleSupply for the sale.",
        "params": {
          "nonFungibleTokens": "supply to be updated."
        }
      }
    }
  },
  "userdoc": {
    "methods": {}
  }
}